Component: ARM Compiler 5.06 update 7 (build 960) Tool: armlink [4d3601]

==============================================================================

Section Cross References

    main.o(i.main) refers to rt_cmsis.o(i.osKernelInitialize) for osKernelInitialize
    main.o(i.main) refers to init.o(i.labInit) for labInit
    main.o(i.main) refers to rt_cmsis.o(i.osThreadCreate) for osThreadCreate
    main.o(i.main) refers to rt_cmsis.o(i.osDelay) for osDelay
    main.o(i.main) refers to rt_cmsis.o(i.osKernelStart) for osKernelStart
    main.o(i.main) refers to main.o(.constdata) for os_thread_def_THREADtask_Green_Blue_Orange_Light
    main.o(i.main) refers to tasks.o(.data) for tid_redLEDTask
    main.o(.constdata) refers to tasks.o(i.THREADtask_RedLight) for THREADtask_RedLight
    main.o(.constdata) refers to tasks.o(i.THREADtask_Green_Blue_Orange_Light) for THREADtask_Green_Blue_Orange_Light
    init.o(i.EXTI0_IRQHandler) refers to rt_cmsis.o(i.osDelay) for osDelay
    init.o(i.EXTI0_IRQHandler) refers to rt_cmsis.o(i.osSignalSet) for osSignalSet
    init.o(i.EXTI0_IRQHandler) refers to rt_cmsis.o(i.osSignalClear) for osSignalClear
    init.o(i.EXTI0_IRQHandler) refers to stm32f4xx_hal_gpio.o(i.HAL_GPIO_EXTI_IRQHandler) for HAL_GPIO_EXTI_IRQHandler
    init.o(i.EXTI0_IRQHandler) refers to tasks.o(.data) for tid_greenLEDTask
    init.o(i.GPIO_Init) refers to stm32f4xx_hal_gpio.o(i.HAL_GPIO_Init) for HAL_GPIO_Init
    init.o(i.UserButton_Init) refers to stm32f4xx_hal_gpio.o(i.HAL_GPIO_Init) for HAL_GPIO_Init
    init.o(i.UserButton_Init) refers to stm32f4xx_hal_cortex.o(i.HAL_NVIC_SetPriority) for HAL_NVIC_SetPriority
    init.o(i.UserButton_Init) refers to stm32f4xx_hal_cortex.o(i.HAL_NVIC_EnableIRQ) for HAL_NVIC_EnableIRQ
==============================================================================

Removing Unused input sections from the image.

    Removing init.o(.rev16_text), (4 bytes).
    Removing init.o(.revsh_text), (4 bytes).
    Removing init.o(.rrx_text), (6 bytes).
    Removing init.o(i.UserButton_Init), (52 bytes).
    Removing lightutils.o(.rev16_text), (4 bytes).
    Removing lightutils.o(.revsh_text), (4 bytes).
    Removing lightutils.o(.rrx_text), (6 bytes).
    Removing rtx_conf_cm.o(i.__user_perthread_libspace), (44 bytes).
    Removing rtx_conf_cm.o(i._mutex_initialize), (44 bytes).
    Removing stm32f4xx_hal.o(.rev16_text), (4 bytes).
    Removing stm32f4xx_hal.o(.revsh_text), (4 bytes).
    Removing stm32f4xx_hal.o(.rrx_text), (6 bytes).
    Removing stm32f4xx_hal.o(i.HAL_DBGMCU_DisableDBGSleepMode), (20 bytes).
    Removing stm32f4xx_hal.o(i.HAL_DBGMCU_DisableDBGStandbyMode), (20 bytes).
    Removing stm32f4xx_hal.o(i.HAL_DBGMCU_DisableDBGStopMode), (20 bytes).
    Removing stm32f4xx_hal.o(i.HAL_DBGMCU_EnableDBGSleepMode), (20 bytes).
    Removing stm32f4xx_hal.o(i.HAL_DBGMCU_EnableDBGStandbyMode), (20 bytes).
    Removing stm32f4xx_hal.o(i.HAL_DBGMCU_EnableDBGStopMode), (20 bytes).
==============================================================================

Image Symbol Table

    Local Symbols

    Symbol Name                              Value     Ov Type        Size  Object(Section)

    ../clib/angel/boardlib.s                 0x00000000   Number         0  boardinit1.o ABSOLUTE
    ../clib/angel/boardlib.s                 0x00000000   Number         0  boardinit2.o ABSOLUTE
    ../clib/angel/boardlib.s                 0x00000000   Number         0  boardshut.o ABSOLUTE
    ../clib/angel/handlers.s                 0x00000000   Number         0  __scatter_zi.o ABSOLUTE
    ../clib/angel/handlers.s                 0x00000000   Number         0  __scatter_copy.o ABSOLUTE
    ../clib/angel/kernel.s                   0x00000000   Number         0  __rtentry2.o ABSOLUTE
    ../clib/angel/kernel.s                   0x00000000   Number         0  __rtentry.o ABSOLUTE
    ../clib/angel/kernel.s                   0x00000000   Number         0  rtexit.o ABSOLUTE
    ../clib/angel/kernel.s                   0x00000000   Number         0  rtexit2.o ABSOLUTE
    ../clib/angel/kernel.s                   0x00000000   Number         0  __rtentry4.o ABSOLUTE
    ../clib/angel/rt.s                       0x00000000   Number         0  rt_raise.o ABSOLUTE
    ../clib/angel/rt.s                       0x00000000   Number         0  aeabi_ldiv0_sigfpe.o ABSOLUTE
    ../clib/angel/rt.s                       0x00000000   Number         0  rt_div0.o ABSOLUTE
    ../clib/angel/rt.s                       0x00000000   Number         0  aeabi_ldiv0.o ABSOLUTE
    ../clib/angel/scatter.s                  0x00000000   Number         0  __scatter.o ABSOLUTE
    ../clib/angel/startup.s                  0x00000000   Number         0  __main.o ABSOLUTE
    ../clib/angel/sys.s                      0x00000000   Number         0  libspace.o ABSOLUTE
    ../clib/angel/sys.s                      0x00000000   Number         0  sys_stackheap_outer.o ABSOLUTE
    ../clib/angel/sys.s                      0x00000000   Number         0  indicate_semi.o ABSOLUTE
    ../clib/angel/sys.s                      0x00000000   Number         0  use_no_semi.o ABSOLUTE
    ../clib/angel/sysapp.c                   0x00000000   Number         0  sys_wrch.o ABSOLUTE
    ../clib/angel/sysapp.c                   0x00000000   Number         0  sys_exit.o ABSOLUTE
    ../clib/angel/sysapp.c                   0x00000000   Number         0  sys_command.o ABSOLUTE
    ../clib/armsys.c                         0x00000000   Number         0  _get_argv_nomalloc.o ABSOLUTE
    ../clib/armsys.c                         0x00000000   Number         0  argv_veneer.o ABSOLUTE
    ../clib/armsys.c                         0x00000000   Number         0  argv_veneer.o ABSOLUTE
    ../clib/armsys.c                         0x00000000   Number         0  no_argv.o ABSOLUTE
    ../clib/heapalloc.c                      0x00000000   Number         0  hrguard.o ABSOLUTE
    ../clib/heapaux.c                        0x00000000   Number         0  heapauxi.o ABSOLUTE
    ../clib/libinit.s                        0x00000000   Number         0  libinit2.o ABSOLUTE
    ../clib/libinit.s                        0x00000000   Number         0  libinit.o ABSOLUTE
    ../clib/libinit.s                        0x00000000   Number         0  libshutdown2.o ABSOLUTE
    ../clib/libinit.s                        0x00000000   Number         0  libshutdown.o ABSOLUTE
    ../clib/longlong.s                       0x00000000   Number         0  lludivv7m.o ABSOLUTE
    ../clib/signal.c                         0x00000000   Number         0  defsig_pvfn_inner.o ABSOLUTE
    ../clib/signal.c                         0x00000000   Number         0  defsig_stak_inner.o ABSOLUTE
    ../clib/signal.c                         0x00000000   Number         0  defsig_rtmem_formal.o ABSOLUTE
    ../clib/signal.c                         0x00000000   Number         0  defsig_rtmem_outer.o ABSOLUTE
    ../clib/signal.c                         0x00000000   Number         0  defsig_rtmem_inner.o ABSOLUTE
    ../clib/signal.c                         0x00000000   Number         0  defsig_rtred_inner.o ABSOLUTE
    ../clib/signal.c                         0x00000000   Number         0  defsig_general.o ABSOLUTE
    ../clib/signal.c                         0x00000000   Number         0  defsig_abrt_inner.o ABSOLUTE
    ../clib/signal.c                         0x00000000   Number         0  __raise.o ABSOLUTE
    ../clib/signal.c                         0x00000000   Number         0  defsig_fpe_inner.o ABSOLUTE
    ../clib/signal.c                         0x00000000   Number         0  defsig_exit.o ABSOLUTE
    ../clib/signal.c                         0x00000000   Number         0  defsig_fpe_outer.o ABSOLUTE
    ../clib/signal.c                         0x00000000   Number         0  defsig_fpe_formal.o ABSOLUTE
    ../clib/signal.c                         0x00000000   Number         0  defsig_segv_inner.o ABSOLUTE
    ../clib/signal.c                         0x00000000   Number         0  defsig_other.o ABSOLUTE
    ../clib/signal.c                         0x00000000   Number         0  defsig_cppl_inner.o ABSOLUTE
    ../clib/signal.s                         0x00000000   Number         0  defsig.o ABSOLUTE
    ../clib/stdlib.c                         0x00000000   Number         0  exit.o ABSOLUTE
    ../fplib/fpinit.s                        0x00000000   Number         0  fpinit.o ABSOLUTE
    ..\HAL_CM.c                              0x00000000   Number         0  hal_cm.o ABSOLUTE
    ..\\rt_CMSIS.c                           0x00000000   Number         0  rt_cmsis.o ABSOLUTE
    ..\\rt_System.c                          0x00000000   Number         0  rt_system.o ABSOLUTE
    ..\rt_CMSIS.c                            0x00000000   Number         0  rt_cmsis.o ABSOLUTE
    ..\rt_Event.c                            0x00000000   Number         0  rt_event.o ABSOLUTE
    ..\rt_List.c                             0x00000000   Number         0  rt_list.o ABSOLUTE
    ..\rt_Mailbox.c                          0x00000000   Number         0  rt_mailbox.o ABSOLUTE
    ..\rt_MemBox.c                           0x00000000   Number         0  rt_membox.o ABSOLUTE
    ..\rt_Memory.c                           0x00000000   Number         0  rt_memory.o ABSOLUTE
    ..\rt_Mutex.c                            0x00000000   Number         0  rt_mutex.o ABSOLUTE
    ..\rt_Robin.c                            0x00000000   Number         0  rt_robin.o ABSOLUTE
    ..\rt_Semaphore.c                        0x00000000   Number         0  rt_semaphore.o ABSOLUTE
    ..\rt_System.c                           0x00000000   Number         0  rt_system.o ABSOLUTE
    ..\rt_Task.c                             0x00000000   Number         0  rt_task.o ABSOLUTE
    ..\rt_Time.c                             0x00000000   Number         0  rt_time.o ABSOLUTE
    E:\Keil\Packs\Keil\STM32F4xx_DFP\2.15.0\Drivers\STM32F4xx_HAL_Driver\Src\stm32f4xx_hal.c 0x00000000   Number         0  stm32f4xx_hal.o ABSOLUTE
    E:\Keil\Packs\Keil\STM32F4xx_DFP\2.15.0\Drivers\STM32F4xx_HAL_Driver\Src\stm32f4xx_hal_cortex.c 0x00000000   Number         0  stm32f4xx_hal_cortex.o ABSOLUTE
    E:\Keil\Packs\Keil\STM32F4xx_DFP\2.15.0\Drivers\STM32F4xx_HAL_Driver\Src\stm32f4xx_hal_gpio.c 0x00000000   Number         0  stm32f4xx_hal_gpio.o ABSOLUTE
    E:\Keil\Packs\Keil\STM32F4xx_DFP\2.15.0\Drivers\STM32F4xx_HAL_Driver\Src\stm32f4xx_hal_pwr.c 0x00000000   Number         0  stm32f4xx_hal_pwr.o ABSOLUTE
    E:\Keil\Packs\Keil\STM32F4xx_DFP\2.15.0\Drivers\STM32F4xx_HAL_Driver\Src\stm32f4xx_hal_pwr_ex.c 0x00000000   Number         0  stm32f4xx_hal_pwr_ex.o ABSOLUTE
    E:\Keil\Packs\Keil\STM32F4xx_DFP\2.15.0\Drivers\STM32F4xx_HAL_Driver\Src\stm32f4xx_hal_rcc.c 0x00000000   Number         0  stm32f4xx_hal_rcc.o ABSOLUTE
    E:\Keil\Packs\Keil\STM32F4xx_DFP\2.15.0\Drivers\STM32F4xx_HAL_Driver\Src\stm32f4xx_hal_rcc_ex.c 0x00000000   Number         0  stm32f4xx_hal_rcc_ex.o ABSOLUTE
    E:\\Keil\\Packs\\Keil\\STM32F4xx_DFP\\2.15.0\\Drivers\\STM32F4xx_HAL_Driver\\Src\\stm32f4xx_hal.c 0x00000000   Number         0  stm32f4xx_hal.o ABSOLUTE
    E:\\Keil\\Packs\\Keil\\STM32F4xx_DFP\\2.15.0\\Drivers\\STM32F4xx_HAL_Driver\\Src\\stm32f4xx_hal_cortex.c 0x00000000   Number         0  stm32f4xx_hal_cortex.o ABSOLUTE
    E:\\Keil\\Packs\\Keil\\STM32F4xx_DFP\\2.15.0\\Drivers\\STM32F4xx_HAL_Driver\\Src\\stm32f4xx_hal_gpio.c 0x00000000   Number         0  stm32f4xx_hal_gpio.o ABSOLUTE
    E:\\Keil\\Packs\\Keil\\STM32F4xx_DFP\\2.15.0\\Drivers\\STM32F4xx_HAL_Driver\\Src\\stm32f4xx_hal_pwr.c 0x00000000   Number         0  stm32f4xx_hal_pwr.o ABSOLUTE
    E:\\Keil\\Packs\\Keil\\STM32F4xx_DFP\\2.15.0\\Drivers\\STM32F4xx_HAL_Driver\\Src\\stm32f4xx_hal_pwr_ex.c 0x00000000   Number         0  stm32f4xx_hal_pwr_ex.o ABSOLUTE
    E:\\Keil\\Packs\\Keil\\STM32F4xx_DFP\\2.15.0\\Drivers\\STM32F4xx_HAL_Driver\\Src\\stm32f4xx_hal_rcc.c 0x00000000   Number         0  stm32f4xx_hal_rcc.o ABSOLUTE
    E:\\Keil\\Packs\\Keil\\STM32F4xx_DFP\\2.15.0\\Drivers\\STM32F4xx_HAL_Driver\\Src\\stm32f4xx_hal_rcc_ex.c 0x00000000   Number         0  stm32f4xx_hal_rcc_ex.o ABSOLUTE
    HAL_CM4.c                                0x00000000   Number         0  hal_cm4.o ABSOLUTE
    HAL_CM4.c                                0x00000000   Number         0  hal_cm4.o ABSOLUTE
    RTE\CMSIS\RTX_Conf_CM.c                  0x00000000   Number         0  rtx_conf_cm.o ABSOLUTE
    RTE\Device\STM32F407VGTx\startup_stm32f407xx.s 0x00000000   Number         0  startup_stm32f407xx.o ABSOLUTE
    RTE\Device\STM32F407VGTx\system_stm32f4xx.c 0x00000000   Number         0  system_stm32f4xx.o ABSOLUTE
    RTE\\CMSIS\\RTX_Conf_CM.c                0x00000000   Number         0  rtx_conf_cm.o ABSOLUTE
    RTE\\Device\\STM32F407VGTx\\system_stm32f4xx.c 0x00000000   Number         0  system_stm32f4xx.o ABSOLUTE
    SVC_Table.s                              0x00000000   Number         0  svc_table.o ABSOLUTE
    dc.s                                     0x00000000   Number         0  dc.o ABSOLUTE
    init.c                                   0x00000000   Number         0  init.o ABSOLUTE
    init.c                                   0x00000000   Number         0  init.o ABSOLUTE
    lightutils.c                             0x00000000   Number         0  lightutils.o ABSOLUTE
    lightutils.c                             0x00000000   Number         0  lightutils.o ABSOLUTE
    main.c                                   0x00000000   Number         0  main.o ABSOLUTE
    tasks.c                                  0x00000000   Number         0  tasks.o ABSOLUTE
    RESET                                    0x08000000   Section      392  startup_stm32f407xx.o(RESET)
    !!!main                                  0x08000188   Section        8  __main.o(!!!main)
    !!!scatter                               0x08000190   Section       52  __scatter.o(!!!scatter)
    !!handler_copy                           0x080001c4   Section       26  __scatter_copy.o(!!handler_copy)
    !!handler_zi                             0x080001e0   Section       28  __scatter_zi.o(!!handler_zi)
    .ARM.Collect$$libinit$$00000000          0x080001fc   Section        2  libinit.o(.ARM.Collect$$libinit$$00000000)
    .ARM.Collect$$libinit$$00000001          0x080001fe   Section        4  libinit2.o(.ARM.Collect$$libinit$$00000001)
    .ARM.Collect$$libinit$$00000004          0x08000202   Section        0  libinit2.o(.ARM.Collect$$libinit$$00000004)
    .ARM.Collect$$libinit$$0000000A          0x08000202   Section        0  libinit2.o(.ARM.Collect$$libinit$$0000000A)
    .ARM.Collect$$libinit$$0000000C          0x08000202   Section        0  libinit2.o(.ARM.Collect$$libinit$$0000000C)
    .ARM.Collect$$libinit$$0000000E          0x08000202   Section        0  libinit2.o(.ARM.Collect$$libinit$$0000000E)
    .ARM.Collect$$libinit$$00000011          0x08000202   Section        0  libinit2.o(.ARM.Collect$$libinit$$00000011)
    .ARM.Collect$$libinit$$00000013          0x08000202   Section        0  libinit2.o(.ARM.Collect$$libinit$$00000013)
    .ARM.Collect$$libinit$$00000015          0x08000202   Section        0  libinit2.o(.ARM.Collect$$libinit$$00000015)
    .ARM.Collect$$libinit$$00000017          0x08000202   Section        0  libinit2.o(.ARM.Collect$$libinit$$00000017)
    .ARM.Collect$$libinit$$00000019          0x08000202   Section        0  libinit2.o(.ARM.Collect$$libinit$$00000019)
    .ARM.Collect$$libinit$$0000001B          0x08000202   Section        0  libinit2.o(.ARM.Collect$$libinit$$0000001B)
    .ARM.Collect$$libinit$$0000001D          0x08000202   Section        0  libinit2.o(.ARM.Collect$$libinit$$0000001D)
    .ARM.Collect$$libinit$$0000001F          0x08000202   Section        0  libinit2.o(.ARM.Collect$$libinit$$0000001F)
    .ARM.Collect$$libinit$$00000021          0x08000202   Section        0  libinit2.o(.ARM.Collect$$libinit$$00000021)
    .ARM.Collect$$libinit$$00000023          0x08000202   Section        0  libinit2.o(.ARM.Collect$$libinit$$00000023)
    .ARM.Collect$$libinit$$00000025          0x08000202   Section        0  libinit2.o(.ARM.Collect$$libinit$$00000025)
    .ARM.Collect$$libinit$$0000002C          0x08000202   Section        0  libinit2.o(.ARM.Collect$$libinit$$0000002C)
    .ARM.Collect$$libinit$$0000002E          0x08000202   Section        0  libinit2.o(.ARM.Collect$$libinit$$0000002E)
    .ARM.Collect$$libinit$$00000030          0x08000202   Section        0  libinit2.o(.ARM.Collect$$libinit$$00000030)
    .ARM.Collect$$libinit$$00000032          0x08000202   Section        0  libinit2.o(.ARM.Collect$$libinit$$00000032)
    .ARM.Collect$$libinit$$00000033          0x08000202   Section        2  libinit2.o(.ARM.Collect$$libinit$$00000033)
    .ARM.Collect$$libshutdown$$00000000      0x08000204   Section        2  libshutdown.o(.ARM.Collect$$libshutdown$$00000000)
    .ARM.Collect$$libshutdown$$00000002      0x08000206   Section        0  libshutdown2.o(.ARM.Collect$$libshutdown$$00000002)
    .ARM.Collect$$libshutdown$$00000004      0x08000206   Section        0  libshutdown2.o(.ARM.Collect$$libshutdown$$00000004)
    .ARM.Collect$$libshutdown$$00000006      0x08000206   Section        0  libshutdown2.o(.ARM.Collect$$libshutdown$$00000006)
    .ARM.Collect$$libshutdown$$00000009      0x08000206   Section        0  libshutdown2.o(.ARM.Collect$$libshutdown$$00000009)
    .ARM.Collect$$libshutdown$$0000000C      0x08000206   Section        0  libshutdown2.o(.ARM.Collect$$libshutdown$$0000000C)
    .ARM.Collect$$libshutdown$$0000000E      0x08000206   Section        0  libshutdown2.o(.ARM.Collect$$libshutdown$$0000000E)
    .ARM.Collect$$libshutdown$$00000011      0x08000206   Section        0  libshutdown2.o(.ARM.Collect$$libshutdown$$00000011)
    .ARM.Collect$$libshutdown$$00000012      0x08000206   Section        2  libshutdown2.o(.ARM.Collect$$libshutdown$$00000012)
    .ARM.Collect$$rtentry$$00000000          0x08000208   Section        0  __rtentry.o(.ARM.Collect$$rtentry$$00000000)
    .ARM.Collect$$rtentry$$00000002          0x08000208   Section        0  __rtentry2.o(.ARM.Collect$$rtentry$$00000002)
    .ARM.Collect$$rtentry$$00000004          0x08000208   Section        6  __rtentry4.o(.ARM.Collect$$rtentry$$00000004)
    .ARM.Collect$$rtentry$$00000009          0x0800020e   Section        0  __rtentry2.o(.ARM.Collect$$rtentry$$00000009)
    .ARM.Collect$$rtentry$$0000000A          0x0800020e   Section        4  __rtentry2.o(.ARM.Collect$$rtentry$$0000000A)
    .ARM.Collect$$rtentry$$0000000B          0x08000212   Section        8  __rtentry2.o(.ARM.Collect$$rtentry$$0000000B)
    .ARM.Collect$$rtentry$$0000000D          0x0800021a   Section        8  __rtentry2.o(.ARM.Collect$$rtentry$$0000000D)
    .ARM.Collect$$rtexit$$00000000           0x08000222   Section        2  rtexit.o(.ARM.Collect$$rtexit$$00000000)
    .ARM.Collect$$rtexit$$00000002           0x08000224   Section        0  rtexit2.o(.ARM.Collect$$rtexit$$00000002)
    .ARM.Collect$$rtexit$$00000003           0x08000224   Section        4  rtexit2.o(.ARM.Collect$$rtexit$$00000003)
    .ARM.Collect$$rtexit$$00000004           0x08000228   Section        6  rtexit2.o(.ARM.Collect$$rtexit$$00000004)
    .emb_text                                0x08000230   Section       28  rtx_conf_cm.o(.emb_text)
    $v0                                      0x08000230   Number         0  rtx_conf_cm.o(.emb_text)
    .emb_text                                0x0800024c   Section      408  hal_cm4.o(.emb_text)
    $v0                                      0x0800024c   Number         0  hal_cm4.o(.emb_text)
    .text                                    0x080003e4   Section       64  startup_stm32f407xx.o(.text)
    $v0                                      0x080003e4   Number         0  startup_stm32f407xx.o(.text)
    .text                                    0x08000424   Section        8  libspace.o(.text)
    .text                                    0x0800042c   Section        0  exit.o(.text)
    .text                                    0x0800043e   Section        0  heapauxi.o(.text)
    .text                                    0x08000444   Section        0  sys_exit.o(.text)
    .text                                    0x08000450   Section       74  sys_stackheap_outer.o(.text)
    .text                                    0x0800049a   Section        2  use_no_semi.o(.text)
    .text                                    0x0800049c   Section        0  indicate_semi.o(.text)
    SVC_TABLE                                0x0800049c   Section        4  svc_table.o(SVC_TABLE)
    i.EXTI0_IRQHandler                       0x080004a0   Section        0  init.o(i.EXTI0_IRQHandler)
    i.GPIO_Init                              0x080004e4   Section        0  init.o(i.GPIO_Init)
    i.HAL_GPIO_EXTI_Callback                 0x08000508   Section        0  stm32f4xx_hal_gpio.o(i.HAL_GPIO_EXTI_Callback)
    i.HAL_GPIO_EXTI_IRQHandler               0x0800050c   Section        0  stm32f4xx_hal_gpio.o(i.HAL_GPIO_EXTI_IRQHandler)
    i.HAL_GPIO_Init                          0x08000528   Section        0  stm32f4xx_hal_gpio.o(i.HAL_GPIO_Init)
    i.HAL_GPIO_WritePin                      0x08000728   Section        0  stm32f4xx_hal_gpio.o(i.HAL_GPIO_WritePin)
    i.SystemInit                             0x08000734   Section        0  system_stm32f4xx.o(i.SystemInit)
    i.THREADtask_Green_Blue_Orange_Light     0x08000798   Section        0  tasks.o(i.THREADtask_Green_Blue_Orange_Light)
    i.THREADtask_RedLight                    0x080007be   Section        0  tasks.o(i.THREADtask_RedLight)
    i._init_box                              0x080007d8   Section        0  rt_membox.o(i._init_box)
    i._mutex_acquire                         0x08000820   Section        0  rtx_conf_cm.o(i._mutex_acquire)
    __tagsym$$used                           0x08000821   Number         0  rtx_conf_cm.o(i._mutex_acquire)
    i._mutex_release                         0x08000840   Section        0  rtx_conf_cm.o(i._mutex_release)
    __tagsym$$used                           0x08000841   Number         0  rtx_conf_cm.o(i._mutex_release)
    i.dbg_init                               0x0800085c   Section        0  hal_cm.o(i.dbg_init)
    i.dbg_task_notify                        0x0800088c   Section        0  hal_cm.o(i.dbg_task_notify)
    i.dbg_task_switch                        0x080008ac   Section        0  hal_cm.o(i.dbg_task_switch)
    i.isrMessageGet                          0x080008bc   Section        0  rt_cmsis.o(i.isrMessageGet)
    i.isrMessagePut                          0x080008e6   Section        0  rt_cmsis.o(i.isrMessagePut)
    i.isrSignalSet                           0x08000912   Section        0  rt_cmsis.o(i.isrSignalSet)
    i.isr_evt_set                            0x08000938   Section        0  rt_event.o(i.isr_evt_set)
    i.isr_mbx_receive                        0x08000960   Section        0  rt_mailbox.o(i.isr_mbx_receive)
    i.isr_mbx_send                           0x080009b6   Section        0  rt_mailbox.o(i.isr_mbx_send)
    i.labInit                                0x080009c4   Section        0  init.o(i.labInit)
    i.lightsOff                              0x080009f0   Section        0  lightutils.o(i.lightsOff)
    i.lightsOn                               0x08000a54   Section        0  lightutils.o(i.lightsOn)
    i.main                                   0x08000ab0   Section        0  main.o(i.main)
    i.osDelay                                0x08000afc   Section        0  rt_cmsis.o(i.osDelay)
    i.osKernelInitialize                     0x08000b14   Section        0  rt_cmsis.o(i.osKernelInitialize)
    i.osKernelStart                          0x08000b38   Section        0  rt_cmsis.o(i.osKernelStart)
    i.osMessageGet                           0x08000ba4   Section        0  rt_cmsis.o(i.osMessageGet)
    i.osSignalClear                          0x08000bbc   Section        0  rt_cmsis.o(i.osSignalClear)
    i.osSignalSet                            0x08000bd4   Section        0  rt_cmsis.o(i.osSignalSet)
    i.osThreadCreate                         0x08000bec   Section        0  rt_cmsis.o(i.osThreadCreate)
    i.osThreadExit                           0x08000c18   Section        0  rt_cmsis.o(i.osThreadExit)
    i.osTimerCall                            0x08000c30   Section        0  rt_cmsis.o(i.osTimerCall)
    i.osTimerThread                          0x08000c3c   Section        0  rt_cmsis.o(i.osTimerThread)
    i.os_error                               0x08000c68   Section        0  rtx_conf_cm.o(i.os_error)
    i.os_idle_demon                          0x08000c8a   Section        0  rtx_conf_cm.o(i.os_idle_demon)
    i.os_tick_init                           0x08000c90   Section        0  rt_system.o(i.os_tick_init)
    i.os_tick_irqack                         0x08000cb8   Section        0  rt_system.o(i.os_tick_irqack)
    i.rt_alloc_box                           0x08000cba   Section        0  rt_membox.o(i.rt_alloc_box)
    i.rt_alloc_mem                           0x08000cd4   Section        0  rt_memory.o(i.rt_alloc_mem)
    i.rt_block                               0x08000d14   Section        0  rt_task.o(i.rt_block)
    i.rt_chk_robin                           0x08000d4c   Section        0  rt_robin.o(i.rt_chk_robin)
    i.rt_dec_dly                             0x08000d94   Section        0  rt_list.o(i.rt_dec_dly)
    i.rt_dispatch                            0x08000e04   Section        0  rt_task.o(i.rt_dispatch)
    i.rt_dly_wait                            0x08000e48   Section        0  rt_time.o(i.rt_dly_wait)
    i.rt_evt_clr                             0x08000e50   Section        0  rt_event.o(i.rt_evt_clr)
    i.rt_evt_psh                             0x08000e6c   Section        0  rt_event.o(i.rt_evt_psh)
    i.rt_evt_set                             0x08000ebc   Section        0  rt_event.o(i.rt_evt_set)
    i.rt_free_box                            0x08000f18   Section        0  rt_membox.o(i.rt_free_box)
    i.rt_free_mem                            0x08000f44   Section        0  rt_memory.o(i.rt_free_mem)
    i.rt_get_first                           0x08000f6c   Section        0  rt_list.o(i.rt_get_first)
    i.rt_id2obj                              0x08000f94   Section        0  rt_cmsis.o(i.rt_id2obj)
    rt_id2obj                                0x08000f95   Thumb Code     8  rt_cmsis.o(i.rt_id2obj)
    i.rt_init_context                        0x08000f9c   Section        0  rt_task.o(i.rt_init_context)
    rt_init_context                          0x08000f9d   Thumb Code    66  rt_task.o(i.rt_init_context)
    i.rt_init_mem                            0x08000fe4   Section        0  rt_memory.o(i.rt_init_mem)
    i.rt_init_robin                          0x08001000   Section        0  rt_robin.o(i.rt_init_robin)
    i.rt_init_stack                          0x08001018   Section        0  hal_cm.o(i.rt_init_stack)
    i.rt_mbx_check                           0x08001098   Section        0  rt_mailbox.o(i.rt_mbx_check)
    i.rt_mbx_init                            0x080010a0   Section        0  rt_mailbox.o(i.rt_mbx_init)
    i.rt_mbx_psh                             0x080010bc   Section        0  rt_mailbox.o(i.rt_mbx_psh)
    i.rt_mbx_wait                            0x080011ac   Section        0  rt_mailbox.o(i.rt_mbx_wait)
    i.rt_ms2tick                             0x08001260   Section        0  rt_cmsis.o(i.rt_ms2tick)
    rt_ms2tick                               0x08001261   Thumb Code    58  rt_cmsis.o(i.rt_ms2tick)
    i.rt_mut_release                         0x080012a4   Section        0  rt_mutex.o(i.rt_mut_release)
    i.rt_mut_wait                            0x0800137c   Section        0  rt_mutex.o(i.rt_mut_wait)
    i.rt_pop_req                             0x080013f4   Section        0  rt_system.o(i.rt_pop_req)
    i.rt_psh_req                             0x08001470   Section        0  rt_system.o(i.rt_psh_req)
    i.rt_psq_enq                             0x08001490   Section        0  rt_list.o(i.rt_psq_enq)
    i.rt_put_dly                             0x080014ec   Section        0  rt_list.o(i.rt_put_dly)
    i.rt_put_prio                            0x08001534   Section        0  rt_list.o(i.rt_put_prio)
    i.rt_put_rdy_first                       0x0800156c   Section        0  rt_list.o(i.rt_put_rdy_first)
    i.rt_resort_prio                         0x08001580   Section        0  rt_list.o(i.rt_resort_prio)
    i.rt_ret_regs                            0x080015b4   Section        0  hal_cm.o(i.rt_ret_regs)
    rt_ret_regs                              0x080015b5   Thumb Code    16  hal_cm.o(i.rt_ret_regs)
    i.rt_ret_val                             0x080015c4   Section        0  hal_cm.o(i.rt_ret_val)
    i.rt_ret_val2                            0x080015d0   Section        0  hal_cm.o(i.rt_ret_val2)
    i.rt_rmv_dly                             0x080015e0   Section        0  rt_list.o(i.rt_rmv_dly)
    i.rt_rmv_list                            0x08001608   Section        0  rt_list.o(i.rt_rmv_list)
    i.rt_sem_psh                             0x08001638   Section        0  rt_semaphore.o(i.rt_sem_psh)
    i.rt_stk_check                           0x0800166c   Section        0  rt_system.o(i.rt_stk_check)
    i.rt_switch_req                          0x08001690   Section        0  rt_task.o(i.rt_switch_req)
    i.rt_sys_init                            0x080016b8   Section        0  rt_task.o(i.rt_sys_init)
    i.rt_sys_start                           0x08001784   Section        0  rt_task.o(i.rt_sys_start)
    i.rt_systick                             0x080017fc   Section        0  rt_system.o(i.rt_systick)
    i.rt_tid2ptcb                            0x0800183c   Section        0  rt_cmsis.o(i.rt_tid2ptcb)
    rt_tid2ptcb                              0x0800183d   Thumb Code    18  rt_cmsis.o(i.rt_tid2ptcb)
    i.rt_timer_insert                        0x08001850   Section        0  rt_cmsis.o(i.rt_timer_insert)
    rt_timer_insert                          0x08001851   Thumb Code    48  rt_cmsis.o(i.rt_timer_insert)
    i.rt_tsk_create                          0x08001884   Section        0  rt_task.o(i.rt_tsk_create)
    i.rt_tsk_delete                          0x0800190c   Section        0  rt_task.o(i.rt_tsk_delete)
    i.rt_tsk_prio                            0x08001a88   Section        0  rt_task.o(i.rt_tsk_prio)
    i.rt_tsk_self                            0x08001b04   Section        0  rt_task.o(i.rt_tsk_self)
    i.svcDelay                               0x08001b14   Section        0  rt_cmsis.o(i.svcDelay)
    i.svcKernelInitialize                    0x08001b28   Section        0  rt_cmsis.o(i.svcKernelInitialize)
    i.svcKernelStart                         0x08001b98   Section        0  rt_cmsis.o(i.svcKernelStart)
    i.svcMessageCreate                       0x08001be0   Section        0  rt_cmsis.o(i.svcMessageCreate)
    i.svcMessageGet                          0x08001c04   Section        0  rt_cmsis.o(i.svcMessageGet)
    i.svcSignalClear                         0x08001c3e   Section        0  rt_cmsis.o(i.svcSignalClear)
    i.svcSignalSet                           0x08001c62   Section        0  rt_cmsis.o(i.svcSignalSet)
    i.svcThreadCreate                        0x08001c88   Section        0  rt_cmsis.o(i.svcThreadCreate)
    i.svcThreadGetId                         0x08001cf4   Section        0  rt_cmsis.o(i.svcThreadGetId)
    i.svcThreadTerminate                     0x08001d10   Section        0  rt_cmsis.o(i.svcThreadTerminate)
    i.svcTimerCall                           0x08001d48   Section        0  rt_cmsis.o(i.svcTimerCall)
    i.sysTimerTick                           0x08001d60   Section        0  rt_cmsis.o(i.sysTimerTick)
    x$fpl$fpinit                             0x08001dbc   Section       10  fpinit.o(x$fpl$fpinit)
    $v0                                      0x08001dbc   Number         0  fpinit.o(x$fpl$fpinit)
    .constdata                               0x08001dc8   Section       32  main.o(.constdata)
    .constdata                               0x08001de8   Section      104  rtx_conf_cm.o(.constdata)
    __tagsym$$used                           0x08001e04   Number         0  rtx_conf_cm.o(.constdata)
    __tagsym$$used                           0x08001e08   Number         0  rtx_conf_cm.o(.constdata)
    __tagsym$$used                           0x08001e0c   Number         0  rtx_conf_cm.o(.constdata)
    __tagsym$$used                           0x08001e10   Number         0  rtx_conf_cm.o(.constdata)
    .data                                    0x20000000   Section       12  tasks.o(.data)
    .data                                    0x2000000c   Section       20  rtx_conf_cm.o(.data)
    nr_mutex                                 0x2000001c   Data           4  rtx_conf_cm.o(.data)
    .data                                    0x20000020   Section        8  rt_cmsis.o(.data)
    .data                                    0x20000028   Section        8  rt_task.o(.data)
    .data                                    0x20000030   Section        8  rt_system.o(.data)
    os_lock                                  0x20000030   Data           1  rt_system.o(.data)
    os_psh_flag                              0x20000031   Data           1  rt_system.o(.data)
    pend_flags                               0x20000032   Data           1  rt_system.o(.data)
    .data                                    0x20000038   Section        4  rt_time.o(.data)
    .data                                    0x2000003c   Section        8  rt_robin.o(.data)
    .data                                    0x20000044   Section        1  hal_cm.o(.data)
    .bss                                     0x20000048   Section     3016  rtx_conf_cm.o(.bss)
    std_libspace                             0x200008f0   Data         672  rtx_conf_cm.o(.bss)
    std_libmutex                             0x20000b90   Data         128  rtx_conf_cm.o(.bss)
    .bss                                     0x20000c10   Section       52  rt_task.o(.bss)
    .bss                                     0x20000c44   Section       48  rt_list.o(.bss)
    .bss                                     0x20000c74   Section       96  libspace.o(.bss)
    HEAP                                     0x20000cd8   Section      512  startup_stm32f407xx.o(HEAP)
    Heap_Mem                                 0x20000cd8   Data         512  startup_stm32f407xx.o(HEAP)
    STACK                                    0x20000ed8   Section     1024  startup_stm32f407xx.o(STACK)
    Stack_Mem                                0x20000ed8   Data        1024  startup_stm32f407xx.o(STACK)
    __initial_sp                             0x200012d8   Data           0  startup_stm32f407xx.o(STACK)

    Global Symbols

    Symbol Name                              Value     Ov Type        Size  Object(Section)

    BuildAttributes$$THM_ISAv4$E$P$D$K$B$S$7EM$VFPi3$EXTD16$VFPS$VFMA$PE$A:L22UL41UL21$X:L11$S22US41US21$IEEE1$IW$USESV6$~STKCKD$USESV7$~SHL$OSPACE$ROPI$EBA8$UX$STANDARDLIB$REQ8$PRES8$EABIv2 0x00000000   Number         0  anon$$obj.o ABSOLUTE
    __ARM_use_no_argv                        0x00000000   Number         0  main.o ABSOLUTE
    __ARM_exceptions_init                     - Undefined Weak Reference
    __alloca_initialize                       - Undefined Weak Reference
    __arm_fini_                               - Undefined Weak Reference
    __arm_preinit_                            - Undefined Weak Reference
    __cpp_initialize__aeabi_                  - Undefined Weak Reference
    __cxa_finalize                            - Undefined Weak Reference
    __rt_locale                               - Undefined Weak Reference
    __sigvec_lookup                           - Undefined Weak Reference
    _atexit_init                              - Undefined Weak Reference
    _call_atexit_fns                          - Undefined Weak Reference
    _clock_init                               - Undefined Weak Reference
    _fp_trap_init                             - Undefined Weak Reference
    _fp_trap_shutdown                         - Undefined Weak Reference
    _get_lc_collate                           - Undefined Weak Reference
    _get_lc_ctype                             - Undefined Weak Reference
    _get_lc_monetary                          - Undefined Weak Reference
    _get_lc_numeric                           - Undefined Weak Reference
    _get_lc_time                              - Undefined Weak Reference
    _getenv_init                              - Undefined Weak Reference
    _handle_redirection                       - Undefined Weak Reference
    _init_alloc                               - Undefined Weak Reference
    _init_user_alloc                          - Undefined Weak Reference
    _initio                                   - Undefined Weak Reference
    _rand_init                                - Undefined Weak Reference
    _signal_finish                            - Undefined Weak Reference
    _signal_init                              - Undefined Weak Reference
    _terminate_alloc                          - Undefined Weak Reference
    _terminate_user_alloc                     - Undefined Weak Reference
    _terminateio                              - Undefined Weak Reference
    __Vectors_Size                           0x00000188   Number         0  startup_stm32f407xx.o ABSOLUTE
    __RL_RTX_VER                             0x00000482   Number         0  rt_system.o ABSOLUTE
    __Vectors                                0x08000000   Data           4  startup_stm32f407xx.o(RESET)
    __Vectors_End                            0x08000188   Data           0  startup_stm32f407xx.o(RESET)
    __main                                   0x08000189   Thumb Code     8  __main.o(!!!main)
    __scatterload                            0x08000191   Thumb Code     0  __scatter.o(!!!scatter)
    __scatterload_rt2                        0x08000191   Thumb Code    44  __scatter.o(!!!scatter)
    __scatterload_rt2_thumb_only             0x08000191   Thumb Code     0  __scatter.o(!!!scatter)
    __scatterload_null                       0x0800019f   Thumb Code     0  __scatter.o(!!!scatter)
    __scatterload_copy                       0x080001c5   Thumb Code    26  __scatter_copy.o(!!handler_copy)
    __scatterload_zeroinit                   0x080001e1   Thumb Code    28  __scatter_zi.o(!!handler_zi)
    __rt_lib_init                            0x080001fd   Thumb Code     0  libinit.o(.ARM.Collect$$libinit$$00000000)
    __rt_lib_init_fp_1                       0x080001ff   Thumb Code     0  libinit2.o(.ARM.Collect$$libinit$$00000001)
    __rt_lib_init_alloca_1                   0x08000203   Thumb Code     0  libinit2.o(.ARM.Collect$$libinit$$0000002E)
    __rt_lib_init_argv_1                     0x08000203   Thumb Code     0  libinit2.o(.ARM.Collect$$libinit$$0000002C)
    __rt_lib_init_atexit_1                   0x08000203   Thumb Code     0  libinit2.o(.ARM.Collect$$libinit$$0000001B)
    __rt_lib_init_clock_1                    0x08000203   Thumb Code     0  libinit2.o(.ARM.Collect$$libinit$$00000021)
    __rt_lib_init_cpp_1                      0x08000203   Thumb Code     0  libinit2.o(.ARM.Collect$$libinit$$00000032)
    __rt_lib_init_exceptions_1               0x08000203   Thumb Code     0  libinit2.o(.ARM.Collect$$libinit$$00000030)
    __rt_lib_init_fp_trap_1                  0x08000203   Thumb Code     0  libinit2.o(.ARM.Collect$$libinit$$0000001F)
    __rt_lib_init_getenv_1                   0x08000203   Thumb Code     0  libinit2.o(.ARM.Collect$$libinit$$00000023)
    __rt_lib_init_heap_1                     0x08000203   Thumb Code     0  libinit2.o(.ARM.Collect$$libinit$$0000000A)
    __rt_lib_init_lc_collate_1               0x08000203   Thumb Code     0  libinit2.o(.ARM.Collect$$libinit$$00000011)
    __rt_lib_init_lc_ctype_1                 0x08000203   Thumb Code     0  libinit2.o(.ARM.Collect$$libinit$$00000013)
    __rt_lib_init_lc_monetary_1              0x08000203   Thumb Code     0  libinit2.o(.ARM.Collect$$libinit$$00000015)
    __rt_lib_init_lc_numeric_1               0x08000203   Thumb Code     0  libinit2.o(.ARM.Collect$$libinit$$00000017)
    __rt_lib_init_lc_time_1                  0x08000203   Thumb Code     0  libinit2.o(.ARM.Collect$$libinit$$00000019)
    __rt_lib_init_preinit_1                  0x08000203   Thumb Code     0  libinit2.o(.ARM.Collect$$libinit$$00000004)
    __rt_lib_init_rand_1                     0x08000203   Thumb Code     0  libinit2.o(.ARM.Collect$$libinit$$0000000E)
    __rt_lib_init_return                     0x08000203   Thumb Code     0  libinit2.o(.ARM.Collect$$libinit$$00000033)
    __rt_lib_init_signal_1                   0x08000203   Thumb Code     0  libinit2.o(.ARM.Collect$$libinit$$0000001D)
    __rt_lib_init_stdio_1                    0x08000203   Thumb Code     0  libinit2.o(.ARM.Collect$$libinit$$00000025)
    __rt_lib_init_user_alloc_1               0x08000203   Thumb Code     0  libinit2.o(.ARM.Collect$$libinit$$0000000C)
    __rt_lib_shutdown                        0x08000205   Thumb Code     0  libshutdown.o(.ARM.Collect$$libshutdown$$00000000)
    __rt_lib_shutdown_cpp_1                  0x08000207   Thumb Code     0  libshutdown2.o(.ARM.Collect$$libshutdown$$00000004)
    __rt_lib_shutdown_fini_1                 0x08000207   Thumb Code     0  libshutdown2.o(.ARM.Collect$$libshutdown$$00000002)
    __rt_lib_shutdown_fp_trap_1              0x08000207   Thumb Code     0  libshutdown2.o(.ARM.Collect$$libshutdown$$00000009)
    __rt_lib_shutdown_heap_1                 0x08000207   Thumb Code     0  libshutdown2.o(.ARM.Collect$$libshutdown$$00000011)
    __rt_lib_shutdown_return                 0x08000207   Thumb Code     0  libshutdown2.o(.ARM.Collect$$libshutdown$$00000012)
    __rt_lib_shutdown_signal_1               0x08000207   Thumb Code     0  libshutdown2.o(.ARM.Collect$$libshutdown$$0000000C)
    __rt_lib_shutdown_stdio_1                0x08000207   Thumb Code     0  libshutdown2.o(.ARM.Collect$$libshutdown$$00000006)
    __rt_lib_shutdown_user_alloc_1           0x08000207   Thumb Code     0  libshutdown2.o(.ARM.Collect$$libshutdown$$0000000E)
    __rt_entry                               0x08000209   Thumb Code     0  __rtentry.o(.ARM.Collect$$rtentry$$00000000)
    __rt_entry_presh_1                       0x08000209   Thumb Code     0  __rtentry2.o(.ARM.Collect$$rtentry$$00000002)
    __rt_entry_sh                            0x08000209   Thumb Code     0  __rtentry4.o(.ARM.Collect$$rtentry$$00000004)
    __rt_entry_li                            0x0800020f   Thumb Code     0  __rtentry2.o(.ARM.Collect$$rtentry$$0000000A)
    __rt_entry_postsh_1                      0x0800020f   Thumb Code     0  __rtentry2.o(.ARM.Collect$$rtentry$$00000009)
    __rt_entry_postli_1                      0x08000213   Thumb Code     0  __rtentry2.o(.ARM.Collect$$rtentry$$0000000B)
    __rt_entry_main                          0x0800021b   Thumb Code     0  __rtentry2.o(.ARM.Collect$$rtentry$$0000000D)
    __rt_exit                                0x08000223   Thumb Code     0  rtexit.o(.ARM.Collect$$rtexit$$00000000)
    __rt_exit_ls                             0x08000225   Thumb Code     0  rtexit2.o(.ARM.Collect$$rtexit$$00000003)
    __rt_exit_prels_1                        0x08000225   Thumb Code     0  rtexit2.o(.ARM.Collect$$rtexit$$00000002)
    __rt_exit_exit                           0x08000229   Thumb Code     0  rtexit2.o(.ARM.Collect$$rtexit$$00000004)
    _platform_post_lib_init                  0x08000231   Thumb Code    24  rtx_conf_cm.o(.emb_text)
    rt_set_PSP                               0x0800024d   Thumb Code     6  hal_cm4.o(.emb_text)
    rt_get_PSP                               0x08000253   Thumb Code     6  hal_cm4.o(.emb_text)
    os_set_env                               0x08000259   Thumb Code    24  hal_cm4.o(.emb_text)
    _alloc_box                               0x08000275   Thumb Code    28  hal_cm4.o(.emb_text)
    _free_box                                0x08000295   Thumb Code    28  hal_cm4.o(.emb_text)
    SVC_Handler                              0x080002b5   Thumb Code   168  hal_cm4.o(.emb_text)
    PendSV_Handler                           0x0800036d   Thumb Code    96  hal_cm4.o(.emb_text)
    SysTick_Handler                          0x080003d1   Thumb Code     8  hal_cm4.o(.emb_text)
    OS_Tick_Handler                          0x080003d9   Thumb Code    12  hal_cm4.o(.emb_text)
    Reset_Handler                            0x080003e5   Thumb Code     8  startup_stm32f407xx.o(.text)
    NMI_Handler                              0x080003ed   Thumb Code     2  startup_stm32f407xx.o(.text)
    HardFault_Handler                        0x080003ef   Thumb Code     2  startup_stm32f407xx.o(.text)
    MemManage_Handler                        0x080003f1   Thumb Code     2  startup_stm32f407xx.o(.text)
    BusFault_Handler                         0x080003f3   Thumb Code     2  startup_stm32f407xx.o(.text)
    UsageFault_Handler                       0x080003f5   Thumb Code     2  startup_stm32f407xx.o(.text)
    DebugMon_Handler                         0x080003f9   Thumb Code     2  startup_stm32f407xx.o(.text)
    ADC_IRQHandler                           0x080003ff   Thumb Code     0  startup_stm32f407xx.o(.text)
    CAN1_RX0_IRQHandler                      0x080003ff   Thumb Code     0  startup_stm32f407xx.o(.text)
    CAN1_RX1_IRQHandler                      0x080003ff   Thumb Code     0  startup_stm32f407xx.o(.text)
    CAN1_SCE_IRQHandler                      0x080003ff   Thumb Code     0  startup_stm32f407xx.o(.text)
    CAN1_TX_IRQHandler                       0x080003ff   Thumb Code     0  startup_stm32f407xx.o(.text)
    CAN2_RX0_IRQHandler                      0x080003ff   Thumb Code     0  startup_stm32f407xx.o(.text)
    CAN2_RX1_IRQHandler                      0x080003ff   Thumb Code     0  startup_stm32f407xx.o(.text)
    CAN2_SCE_IRQHandler                      0x080003ff   Thumb Code     0  startup_stm32f407xx.o(.text)
    CAN2_TX_IRQHandler                       0x080003ff   Thumb Code     0  startup_stm32f407xx.o(.text)
    DCMI_IRQHandler                          0x080003ff   Thumb Code     0  startup_stm32f407xx.o(.text)
    DMA1_Stream0_IRQHandler                  0x080003ff   Thumb Code     0  startup_stm32f407xx.o(.text)
    DMA1_Stream1_IRQHandler                  0x080003ff   Thumb Code     0  startup_stm32f407xx.o(.text)
    DMA1_Stream2_IRQHandler                  0x080003ff   Thumb Code     0  startup_stm32f407xx.o(.text)
    DMA1_Stream3_IRQHandler                  0x080003ff   Thumb Code     0  startup_stm32f407xx.o(.text)
    DMA1_Stream4_IRQHandler                  0x080003ff   Thumb Code     0  startup_stm32f407xx.o(.text)
    DMA1_Stream5_IRQHandler                  0x080003ff   Thumb Code     0  startup_stm32f407xx.o(.text)
    DMA1_Stream6_IRQHandler                  0x080003ff   Thumb Code     0  startup_stm32f407xx.o(.text)
    DMA1_Stream7_IRQHandler                  0x080003ff   Thumb Code     0  startup_stm32f407xx.o(.text)
    DMA2_Stream0_IRQHandler                  0x080003ff   Thumb Code     0  startup_stm32f407xx.o(.text)
    DMA2_Stream1_IRQHandler                  0x080003ff   Thumb Code     0  startup_stm32f407xx.o(.text)
    DMA2_Stream2_IRQHandler                  0x080003ff   Thumb Code     0  startup_stm32f407xx.o(.text)
    DMA2_Stream3_IRQHandler                  0x080003ff   Thumb Code     0  startup_stm32f407xx.o(.text)
    DMA2_Stream4_IRQHandler                  0x080003ff   Thumb Code     0  startup_stm32f407xx.o(.text)
    DMA2_Stream5_IRQHandler                  0x080003ff   Thumb Code     0  startup_stm32f407xx.o(.text)
    DMA2_Stream6_IRQHandler                  0x080003ff   Thumb Code     0  startup_stm32f407xx.o(.text)
    DMA2_Stream7_IRQHandler                  0x080003ff   Thumb Code     0  startup_stm32f407xx.o(.text)
    ETH_IRQHandler                           0x080003ff   Thumb Code     0  startup_stm32f407xx.o(.text)
    ETH_WKUP_IRQHandler                      0x080003ff   Thumb Code     0  startup_stm32f407xx.o(.text)
    EXTI15_10_IRQHandler                     0x080003ff   Thumb Code     0  startup_stm32f407xx.o(.text)
    EXTI1_IRQHandler                         0x080003ff   Thumb Code     0  startup_stm32f407xx.o(.text)
    EXTI2_IRQHandler                         0x080003ff   Thumb Code     0  startup_stm32f407xx.o(.text)
    EXTI3_IRQHandler                         0x080003ff   Thumb Code     0  startup_stm32f407xx.o(.text)
    EXTI4_IRQHandler                         0x080003ff   Thumb Code     0  startup_stm32f407xx.o(.text)
    EXTI9_5_IRQHandler                       0x080003ff   Thumb Code     0  startup_stm32f407xx.o(.text)
    FLASH_IRQHandler                         0x080003ff   Thumb Code     0  startup_stm32f407xx.o(.text)
    FMC_IRQHandler                           0x080003ff   Thumb Code     0  startup_stm32f407xx.o(.text)
    FPU_IRQHandler                           0x080003ff   Thumb Code     0  startup_stm32f407xx.o(.text)
    HASH_RNG_IRQHandler                      0x080003ff   Thumb Code     0  startup_stm32f407xx.o(.text)
    I2C1_ER_IRQHandler                       0x080003ff   Thumb Code     0  startup_stm32f407xx.o(.text)
    I2C1_EV_IRQHandler                       0x080003ff   Thumb Code     0  startup_stm32f407xx.o(.text)
    I2C2_ER_IRQHandler                       0x080003ff   Thumb Code     0  startup_stm32f407xx.o(.text)
    I2C2_EV_IRQHandler                       0x080003ff   Thumb Code     0  startup_stm32f407xx.o(.text)
    I2C3_ER_IRQHandler                       0x080003ff   Thumb Code     0  startup_stm32f407xx.o(.text)
    I2C3_EV_IRQHandler                       0x080003ff   Thumb Code     0  startup_stm32f407xx.o(.text)
    OTG_FS_IRQHandler                        0x080003ff   Thumb Code     0  startup_stm32f407xx.o(.text)
    OTG_FS_WKUP_IRQHandler                   0x080003ff   Thumb Code     0  startup_stm32f407xx.o(.text)
    OTG_HS_EP1_IN_IRQHandler                 0x080003ff   Thumb Code     0  startup_stm32f407xx.o(.text)
    OTG_HS_EP1_OUT_IRQHandler                0x080003ff   Thumb Code     0  startup_stm32f407xx.o(.text)
    OTG_HS_IRQHandler                        0x080003ff   Thumb Code     0  startup_stm32f407xx.o(.text)
    OTG_HS_WKUP_IRQHandler                   0x080003ff   Thumb Code     0  startup_stm32f407xx.o(.text)
    PVD_IRQHandler                           0x080003ff   Thumb Code     0  startup_stm32f407xx.o(.text)
    RCC_IRQHandler                           0x080003ff   Thumb Code     0  startup_stm32f407xx.o(.text)
    RTC_Alarm_IRQHandler                     0x080003ff   Thumb Code     0  startup_stm32f407xx.o(.text)
    RTC_WKUP_IRQHandler                      0x080003ff   Thumb Code     0  startup_stm32f407xx.o(.text)
    SDIO_IRQHandler                          0x080003ff   Thumb Code     0  startup_stm32f407xx.o(.text)
    SPI1_IRQHandler                          0x080003ff   Thumb Code     0  startup_stm32f407xx.o(.text)
    SPI2_IRQHandler                          0x080003ff   Thumb Code     0  startup_stm32f407xx.o(.text)
    SPI3_IRQHandler                          0x080003ff   Thumb Code     0  startup_stm32f407xx.o(.text)
    TAMP_STAMP_IRQHandler                    0x080003ff   Thumb Code     0  startup_stm32f407xx.o(.text)
    TIM1_BRK_TIM9_IRQHandler                 0x080003ff   Thumb Code     0  startup_stm32f407xx.o(.text)
    TIM1_CC_IRQHandler                       0x080003ff   Thumb Code     0  startup_stm32f407xx.o(.text)
    TIM1_TRG_COM_TIM11_IRQHandler            0x080003ff   Thumb Code     0  startup_stm32f407xx.o(.text)
    TIM1_UP_TIM10_IRQHandler                 0x080003ff   Thumb Code     0  startup_stm32f407xx.o(.text)
    TIM2_IRQHandler                          0x080003ff   Thumb Code     0  startup_stm32f407xx.o(.text)
    TIM3_IRQHandler                          0x080003ff   Thumb Code     0  startup_stm32f407xx.o(.text)
    TIM4_IRQHandler                          0x080003ff   Thumb Code     0  startup_stm32f407xx.o(.text)
    TIM5_IRQHandler                          0x080003ff   Thumb Code     0  startup_stm32f407xx.o(.text)
    TIM6_DAC_IRQHandler                      0x080003ff   Thumb Code     0  startup_stm32f407xx.o(.text)
    TIM7_IRQHandler                          0x080003ff   Thumb Code     0  startup_stm32f407xx.o(.text)
    TIM8_BRK_TIM12_IRQHandler                0x080003ff   Thumb Code     0  startup_stm32f407xx.o(.text)
    TIM8_CC_IRQHandler                       0x080003ff   Thumb Code     0  startup_stm32f407xx.o(.text)
    TIM8_TRG_COM_TIM14_IRQHandler            0x080003ff   Thumb Code     0  startup_stm32f407xx.o(.text)
    TIM8_UP_TIM13_IRQHandler                 0x080003ff   Thumb Code     0  startup_stm32f407xx.o(.text)
    UART4_IRQHandler                         0x080003ff   Thumb Code     0  startup_stm32f407xx.o(.text)
    UART5_IRQHandler                         0x080003ff   Thumb Code     0  startup_stm32f407xx.o(.text)
    USART1_IRQHandler                        0x080003ff   Thumb Code     0  startup_stm32f407xx.o(.text)
    USART2_IRQHandler                        0x080003ff   Thumb Code     0  startup_stm32f407xx.o(.text)
    USART3_IRQHandler                        0x080003ff   Thumb Code     0  startup_stm32f407xx.o(.text)
    USART6_IRQHandler                        0x080003ff   Thumb Code     0  startup_stm32f407xx.o(.text)
    WWDG_IRQHandler                          0x080003ff   Thumb Code     0  startup_stm32f407xx.o(.text)
    __user_initial_stackheap                 0x08000401   Thumb Code     0  startup_stm32f407xx.o(.text)
    __user_libspace                          0x08000425   Thumb Code     8  libspace.o(.text)
    __user_perproc_libspace                  0x08000425   Thumb Code     0  libspace.o(.text)
    exit                                     0x0800042d   Thumb Code    18  exit.o(.text)
    __use_two_region_memory                  0x0800043f   Thumb Code     2  heapauxi.o(.text)
    __rt_heap_escrow$2region                 0x08000441   Thumb Code     2  heapauxi.o(.text)
    __rt_heap_expand$2region                 0x08000443   Thumb Code     2  heapauxi.o(.text)
    _sys_exit                                0x08000445   Thumb Code     8  sys_exit.o(.text)
    __user_setup_stackheap                   0x08000451   Thumb Code    74  sys_stackheap_outer.o(.text)
    __I$use$semihosting                      0x0800049b   Thumb Code     0  use_no_semi.o(.text)
    __use_no_semihosting_swi                 0x0800049b   Thumb Code     2  use_no_semi.o(.text)
    SVC_Count                                0x0800049c   Data           4  svc_table.o(SVC_TABLE)
    __semihosting_library_function           0x0800049d   Thumb Code     0  indicate_semi.o(.text)
    EXTI0_IRQHandler                         0x080004a1   Thumb Code    58  init.o(i.EXTI0_IRQHandler)
    SVC_Table                                0x080004a0   Data           0  svc_table.o(SVC_TABLE)
    GPIO_Init                                0x080004e5   Thumb Code    32  init.o(i.GPIO_Init)
    HAL_GPIO_EXTI_Callback                   0x08000509   Thumb Code     2  stm32f4xx_hal_gpio.o(i.HAL_GPIO_EXTI_Callback)
    HAL_GPIO_EXTI_IRQHandler                 0x0800050d   Thumb Code    24  stm32f4xx_hal_gpio.o(i.HAL_GPIO_EXTI_IRQHandler)
    HAL_GPIO_Init                            0x08000529   Thumb Code   466  stm32f4xx_hal_gpio.o(i.HAL_GPIO_Init)
    HAL_GPIO_WritePin                        0x08000729   Thumb Code    12  stm32f4xx_hal_gpio.o(i.HAL_GPIO_WritePin)
    SystemInit                               0x08000735   Thumb Code    82  system_stm32f4xx.o(i.SystemInit)
    THREADtask_Green_Blue_Orange_Light       0x08000799   Thumb Code    38  tasks.o(i.THREADtask_Green_Blue_Orange_Light)
    THREADtask_RedLight                      0x080007bf   Thumb Code    26  tasks.o(i.THREADtask_RedLight)
    _init_box                                0x080007d9   Thumb Code    70  rt_membox.o(i._init_box)
    _mutex_acquire                           0x08000821   Thumb Code    22  rtx_conf_cm.o(i._mutex_acquire)
    _mutex_release                           0x08000841   Thumb Code    18  rtx_conf_cm.o(i._mutex_release)
    dbg_init                                 0x0800085d   Thumb Code    34  hal_cm.o(i.dbg_init)
    dbg_task_notify                          0x0800088d   Thumb Code    32  hal_cm.o(i.dbg_task_notify)
    dbg_task_switch                          0x080008ad   Thumb Code    16  hal_cm.o(i.dbg_task_switch)
    isrMessageGet                            0x080008bd   Thumb Code    42  rt_cmsis.o(i.isrMessageGet)
    isrMessagePut                            0x080008e7   Thumb Code    44  rt_cmsis.o(i.isrMessagePut)
    isrSignalSet                             0x08000913   Thumb Code    36  rt_cmsis.o(i.isrSignalSet)
    isr_evt_set                              0x08000939   Thumb Code    34  rt_event.o(i.isr_evt_set)
    isr_mbx_receive                          0x08000961   Thumb Code    86  rt_mailbox.o(i.isr_mbx_receive)
    isr_mbx_send                             0x080009b7   Thumb Code    14  rt_mailbox.o(i.isr_mbx_send)
    labInit                                  0x080009c5   Thumb Code    40  init.o(i.labInit)
    lightsOff                                0x080009f1   Thumb Code    96  lightutils.o(i.lightsOff)
    lightsOn                                 0x08000a55   Thumb Code    88  lightutils.o(i.lightsOn)
    main                                     0x08000ab1   Thumb Code    58  main.o(i.main)
    osDelay                                  0x08000afd   Thumb Code    18  rt_cmsis.o(i.osDelay)
    osKernelInitialize                       0x08000b15   Thumb Code    30  rt_cmsis.o(i.osKernelInitialize)
    osKernelStart                            0x08000b39   Thumb Code    98  rt_cmsis.o(i.osKernelStart)
    osMessageGet                             0x08000ba5   Thumb Code    18  rt_cmsis.o(i.osMessageGet)
    osSignalClear                            0x08000bbd   Thumb Code    20  rt_cmsis.o(i.osSignalClear)
    osSignalSet                              0x08000bd5   Thumb Code    18  rt_cmsis.o(i.osSignalSet)
    osThreadCreate                           0x08000bed   Thumb Code    36  rt_cmsis.o(i.osThreadCreate)
    osThreadExit                             0x08000c19   Thumb Code    14  rt_cmsis.o(i.osThreadExit)
    osTimerCall                              0x08000c31   Thumb Code     8  rt_cmsis.o(i.osTimerCall)
    osTimerThread                            0x08000c3d   Thumb Code    38  rt_cmsis.o(i.osTimerThread)
    os_error                                 0x08000c69   Thumb Code    34  rtx_conf_cm.o(i.os_error)
    os_idle_demon                            0x08000c8b   Thumb Code     4  rtx_conf_cm.o(i.os_idle_demon)
    os_tick_init                             0x08000c91   Thumb Code    32  rt_system.o(i.os_tick_init)
    os_tick_irqack                           0x08000cb9   Thumb Code     2  rt_system.o(i.os_tick_irqack)
    rt_alloc_box                             0x08000cbb   Thumb Code    26  rt_membox.o(i.rt_alloc_box)
    rt_alloc_mem                             0x08000cd5   Thumb Code    62  rt_memory.o(i.rt_alloc_mem)
    rt_block                                 0x08000d15   Thumb Code    48  rt_task.o(i.rt_block)
    rt_chk_robin                             0x08000d4d   Thumb Code    60  rt_robin.o(i.rt_chk_robin)
    rt_dec_dly                               0x08000d95   Thumb Code   102  rt_list.o(i.rt_dec_dly)
    rt_dispatch                              0x08000e05   Thumb Code    60  rt_task.o(i.rt_dispatch)
    rt_dly_wait                              0x08000e49   Thumb Code     6  rt_time.o(i.rt_dly_wait)
    rt_evt_clr                               0x08000e51   Thumb Code    22  rt_event.o(i.rt_evt_clr)
    rt_evt_psh                               0x08000e6d   Thumb Code    76  rt_event.o(i.rt_evt_psh)
    rt_evt_set                               0x08000ebd   Thumb Code    88  rt_event.o(i.rt_evt_set)
    rt_free_box                              0x08000f19   Thumb Code    44  rt_membox.o(i.rt_free_box)
    rt_free_mem                              0x08000f45   Thumb Code    40  rt_memory.o(i.rt_free_mem)
    rt_get_first                             0x08000f6d   Thumb Code    40  rt_list.o(i.rt_get_first)
    rt_init_mem                              0x08000fe5   Thumb Code    26  rt_memory.o(i.rt_init_mem)
    rt_init_robin                            0x08001001   Thumb Code    14  rt_robin.o(i.rt_init_robin)
    rt_init_stack                            0x08001019   Thumb Code   118  hal_cm.o(i.rt_init_stack)
    rt_mbx_check                             0x08001099   Thumb Code     8  rt_mailbox.o(i.rt_mbx_check)
    rt_mbx_init                              0x080010a1   Thumb Code    26  rt_mailbox.o(i.rt_mbx_init)
    rt_mbx_psh                               0x080010bd   Thumb Code   236  rt_mailbox.o(i.rt_mbx_psh)
    rt_mbx_wait                              0x080011ad   Thumb Code   174  rt_mailbox.o(i.rt_mbx_wait)
    rt_mut_release                           0x080012a5   Thumb Code   208  rt_mutex.o(i.rt_mut_release)
    rt_mut_wait                              0x0800137d   Thumb Code   114  rt_mutex.o(i.rt_mut_wait)
    rt_pop_req                               0x080013f5   Thumb Code   112  rt_system.o(i.rt_pop_req)
    rt_psh_req                               0x08001471   Thumb Code    22  rt_system.o(i.rt_psh_req)
    rt_psq_enq                               0x08001491   Thumb Code    88  rt_list.o(i.rt_psq_enq)
    rt_put_dly                               0x080014ed   Thumb Code    68  rt_list.o(i.rt_put_dly)
    rt_put_prio                              0x08001535   Thumb Code    54  rt_list.o(i.rt_put_prio)
    rt_put_rdy_first                         0x0800156d   Thumb Code    14  rt_list.o(i.rt_put_rdy_first)
    rt_resort_prio                           0x08001581   Thumb Code    46  rt_list.o(i.rt_resort_prio)
    rt_ret_val                               0x080015c5   Thumb Code    12  hal_cm.o(i.rt_ret_val)
    rt_ret_val2                              0x080015d1   Thumb Code    16  hal_cm.o(i.rt_ret_val2)
    rt_rmv_dly                               0x080015e1   Thumb Code    40  rt_list.o(i.rt_rmv_dly)
    rt_rmv_list                              0x08001609   Thumb Code    44  rt_list.o(i.rt_rmv_list)
    rt_sem_psh                               0x08001639   Thumb Code    48  rt_semaphore.o(i.rt_sem_psh)
    rt_stk_check                             0x0800166d   Thumb Code    28  rt_system.o(i.rt_stk_check)
    rt_switch_req                            0x08001691   Thumb Code    30  rt_task.o(i.rt_switch_req)
    rt_sys_init                              0x080016b9   Thumb Code   138  rt_task.o(i.rt_sys_init)
    rt_sys_start                             0x08001785   Thumb Code   110  rt_task.o(i.rt_sys_start)
    rt_systick                               0x080017fd   Thumb Code    50  rt_system.o(i.rt_systick)
    rt_tsk_create                            0x08001885   Thumb Code   118  rt_task.o(i.rt_tsk_create)
    rt_tsk_delete                            0x0800190d   Thumb Code   352  rt_task.o(i.rt_tsk_delete)
    rt_tsk_prio                              0x08001a89   Thumb Code   108  rt_task.o(i.rt_tsk_prio)
    rt_tsk_self                              0x08001b05   Thumb Code    12  rt_task.o(i.rt_tsk_self)
    svcDelay                                 0x08001b15   Thumb Code    18  rt_cmsis.o(i.svcDelay)
    svcKernelInitialize                      0x08001b29   Thumb Code    80  rt_cmsis.o(i.svcKernelInitialize)
    svcKernelStart                           0x08001b99   Thumb Code    62  rt_cmsis.o(i.svcKernelStart)
    svcMessageCreate                         0x08001be1   Thumb Code    36  rt_cmsis.o(i.svcMessageCreate)
    svcMessageGet                            0x08001c05   Thumb Code    58  rt_cmsis.o(i.svcMessageGet)
    svcSignalClear                           0x08001c3f   Thumb Code    36  rt_cmsis.o(i.svcSignalClear)
    svcSignalSet                             0x08001c63   Thumb Code    36  rt_cmsis.o(i.svcSignalSet)
    svcThreadCreate                          0x08001c89   Thumb Code    96  rt_cmsis.o(i.svcThreadCreate)
    svcThreadGetId                           0x08001cf5   Thumb Code    22  rt_cmsis.o(i.svcThreadGetId)
    svcThreadTerminate                       0x08001d11   Thumb Code    50  rt_cmsis.o(i.svcThreadTerminate)
    svcTimerCall                             0x08001d49   Thumb Code    24  rt_cmsis.o(i.svcTimerCall)
    sysTimerTick                             0x08001d61   Thumb Code    84  rt_cmsis.o(i.sysTimerTick)
    _fp_init                                 0x08001dbd   Thumb Code    10  fpinit.o(x$fpl$fpinit)
    __fplib_config_fpu_vfp                   0x08001dc5   Thumb Code     0  fpinit.o(x$fpl$fpinit)
    __fplib_config_pureend_doubles           0x08001dc5   Thumb Code     0  fpinit.o(x$fpl$fpinit)
    os_thread_def_THREADtask_RedLight        0x08001dc8   Data          16  main.o(.constdata)
    os_thread_def_THREADtask_Green_Blue_Orange_Light 0x08001dd8   Data          16  main.o(.constdata)
    os_maxtaskrun                            0x08001de8   Data           2  rtx_conf_cm.o(.constdata)
    os_stackinfo                             0x08001dec   Data           4  rtx_conf_cm.o(.constdata)
    os_rrobin                                0x08001df0   Data           4  rtx_conf_cm.o(.constdata)
    os_tickfreq                              0x08001df4   Data           4  rtx_conf_cm.o(.constdata)
    os_tickus_i                              0x08001df8   Data           2  rtx_conf_cm.o(.constdata)
    os_tickus_f                              0x08001dfa   Data           2  rtx_conf_cm.o(.constdata)
    os_trv                                   0x08001dfc   Data           4  rtx_conf_cm.o(.constdata)
    os_flags                                 0x08001e00   Data           1  rtx_conf_cm.o(.constdata)
    CMSIS_RTOS_API_Version                   0x08001e04   Data           4  rtx_conf_cm.o(.constdata)
    CMSIS_RTOS_RTX_Version                   0x08001e08   Data           4  rtx_conf_cm.o(.constdata)
    os_clockrate                             0x08001e0c   Data           4  rtx_conf_cm.o(.constdata)
    os_timernum                              0x08001e10   Data           4  rtx_conf_cm.o(.constdata)
    mp_tcb_size                              0x08001e14   Data           2  rtx_conf_cm.o(.constdata)
    mp_stk_size                              0x08001e18   Data           4  rtx_conf_cm.o(.constdata)
    os_stack_sz                              0x08001e1c   Data           4  rtx_conf_cm.o(.constdata)
    os_fifo_size                             0x08001e20   Data           1  rtx_conf_cm.o(.constdata)
    os_thread_def_osTimerThread              0x08001e24   Data          16  rtx_conf_cm.o(.constdata)
    os_messageQ_def_osTimerMessageQ          0x08001e34   Data           8  rtx_conf_cm.o(.constdata)
    mp_tmr_size                              0x08001e3c   Data           2  rtx_conf_cm.o(.constdata)
    os_thread_def_main                       0x08001e40   Data          16  rtx_conf_cm.o(.constdata)
    Region$$Table$$Base                      0x08001e50   Number         0  anon$$obj.o(Region$$Table)
    Region$$Table$$Limit                     0x08001e70   Number         0  anon$$obj.o(Region$$Table)
    tid_redLEDTask                           0x20000000   Data           4  tasks.o(.data)
    tid_blueLEDTask                          0x20000004   Data           4  tasks.o(.data)
    tid_greenLEDTask                         0x20000008   Data           4  tasks.o(.data)
    osThreadId_osTimerThread                 0x2000000c   Data           4  rtx_conf_cm.o(.data)
    osMessageQId_osTimerMessageQ             0x20000010   Data           4  rtx_conf_cm.o(.data)
    os_tmr                                   0x20000014   Data           4  rtx_conf_cm.o(.data)
    m_tmr                                    0x20000018   Data           4  rtx_conf_cm.o(.data)
    os_initialized                           0x20000020   Data           1  rt_cmsis.o(.data)
    os_running                               0x20000021   Data           1  rt_cmsis.o(.data)
    os_timer_head                            0x20000024   Data           4  rt_cmsis.o(.data)
    os_tsk                                   0x20000028   Data           8  rt_task.o(.data)
    os_tick_irqn                             0x20000034   Data           4  rt_system.o(.data)
    os_time                                  0x20000038   Data           4  rt_time.o(.data)
    os_robin                                 0x2000003c   Data           8  rt_robin.o(.data)
    dbg_msg                                  0x20000044   Data           1  hal_cm.o(.data)
    mp_tcb                                   0x20000048   Data         376  rtx_conf_cm.o(.bss)
    mp_stk                                   0x200001c0   Data        1216  rtx_conf_cm.o(.bss)
    os_stack_mem                             0x20000680   Data         432  rtx_conf_cm.o(.bss)
    os_fifo                                  0x20000830   Data         132  rtx_conf_cm.o(.bss)
    os_active_TCB                            0x200008b4   Data          28  rtx_conf_cm.o(.bss)
    os_messageQ_q_osTimerMessageQ            0x200008d0   Data          32  rtx_conf_cm.o(.bss)
    os_idle_TCB                              0x20000c10   Data          52  rt_task.o(.bss)
    os_rdy                                   0x20000c44   Data          24  rt_list.o(.bss)
    os_dly                                   0x20000c5c   Data          24  rt_list.o(.bss)
    __libspace_start                         0x20000c74   Data          96  libspace.o(.bss)
    __temporary_stack_top$libspace           0x20000cd4   Data           0  libspace.o(.bss)



==============================================================================

Memory Map of the image

  Image Entry point : 0x080003e5

  Load Region LR_1 (Base: 0x08000000, Size: 0x00001eb8, Max: 0xffffffff, ABSOLUTE)

    Execution Region ER_RO (Exec base: 0x08000000, Load base: 0x08000000, Size: 0x00001e70, Max: 0xffffffff, ABSOLUTE)

    Exec Addr    Load Addr    Size         Type   Attr      Idx    E Section Name        Object

    0x08000000   0x08000000   0x00000188   Data   RO         1003    RESET               startup_stm32f407xx.o
    0x08000188   0x08000188   0x00000008   Code   RO         2272  * !!!main             c_w.l(__main.o)
    0x08000190   0x08000190   0x00000034   Code   RO         2435    !!!scatter          c_w.l(__scatter.o)
    0x080001c4   0x080001c4   0x0000001a   Code   RO         2437    !!handler_copy      c_w.l(__scatter_copy.o)
    0x080001de   0x080001de   0x00000002   PAD
    0x080001e0   0x080001e0   0x0000001c   Code   RO         2439    !!handler_zi        c_w.l(__scatter_zi.o)
    0x080001fc   0x080001fc   0x00000002   Code   RO         2319    .ARM.Collect$$libinit$$00000000  c_w.l(libinit.o)
    0x080001fe   0x080001fe   0x00000004   Code   RO         2330    .ARM.Collect$$libinit$$00000001  c_w.l(libinit2.o)
    0x08000202   0x08000202   0x00000000   Code   RO         2333    .ARM.Collect$$libinit$$00000004  c_w.l(libinit2.o)
    0x08000202   0x08000202   0x00000000   Code   RO         2336    .ARM.Collect$$libinit$$0000000A  c_w.l(libinit2.o)
    0x08000202   0x08000202   0x00000000   Code   RO         2338    .ARM.Collect$$libinit$$0000000C  c_w.l(libinit2.o)
    0x08000202   0x08000202   0x00000000   Code   RO         2340    .ARM.Collect$$libinit$$0000000E  c_w.l(libinit2.o)
    0x08000202   0x08000202   0x00000000   Code   RO         2343    .ARM.Collect$$libinit$$00000011  c_w.l(libinit2.o)
    0x08000202   0x08000202   0x00000000   Code   RO         2345    .ARM.Collect$$libinit$$00000013  c_w.l(libinit2.o)
    0x08000202   0x08000202   0x00000000   Code   RO         2347    .ARM.Collect$$libinit$$00000015  c_w.l(libinit2.o)
    0x08000202   0x08000202   0x00000000   Code   RO         2349    .ARM.Collect$$libinit$$00000017  c_w.l(libinit2.o)
    0x08000202   0x08000202   0x00000000   Code   RO         2351    .ARM.Collect$$libinit$$00000019  c_w.l(libinit2.o)
    0x08000202   0x08000202   0x00000000   Code   RO         2353    .ARM.Collect$$libinit$$0000001B  c_w.l(libinit2.o)
    0x08000202   0x08000202   0x00000000   Code   RO         2355    .ARM.Collect$$libinit$$0000001D  c_w.l(libinit2.o)
    0x08000202   0x08000202   0x00000000   Code   RO         2357    .ARM.Collect$$libinit$$0000001F  c_w.l(libinit2.o)
    0x08000202   0x08000202   0x00000000   Code   RO         2359    .ARM.Collect$$libinit$$00000021  c_w.l(libinit2.o)
    0x08000202   0x08000202   0x00000000   Code   RO         2361    .ARM.Collect$$libinit$$00000023  c_w.l(libinit2.o)
    0x08000202   0x08000202   0x00000000   Code   RO         2363    .ARM.Collect$$libinit$$00000025  c_w.l(libinit2.o)
    0x08000202   0x08000202   0x00000000   Code   RO         2367    .ARM.Collect$$libinit$$0000002C  c_w.l(libinit2.o)
    0x08000202   0x08000202   0x00000000   Code   RO         2369    .ARM.Collect$$libinit$$0000002E  c_w.l(libinit2.o)
    0x08000202   0x08000202   0x00000000   Code   RO         2371    .ARM.Collect$$libinit$$00000030  c_w.l(libinit2.o)
    0x08000202   0x08000202   0x00000000   Code   RO         2373    .ARM.Collect$$libinit$$00000032  c_w.l(libinit2.o)
    0x08000202   0x08000202   0x00000002   Code   RO         2374    .ARM.Collect$$libinit$$00000033  c_w.l(libinit2.o)
    0x08000204   0x08000204   0x00000002   Code   RO         2320    .ARM.Collect$$libshutdown$$00000000  c_w.l(libshutdown.o)
    0x08000206   0x08000206   0x00000000   Code   RO         2376    .ARM.Collect$$libshutdown$$00000002  c_w.l(libshutdown2.o)
    0x08000206   0x08000206   0x00000000   Code   RO         2378    .ARM.Collect$$libshutdown$$00000004  c_w.l(libshutdown2.o)
    0x08000206   0x08000206   0x00000000   Code   RO         2380    .ARM.Collect$$libshutdown$$00000006  c_w.l(libshutdown2.o)
    0x08000206   0x08000206   0x00000000   Code   RO         2383    .ARM.Collect$$libshutdown$$00000009  c_w.l(libshutdown2.o)
    0x08000206   0x08000206   0x00000000   Code   RO         2386    .ARM.Collect$$libshutdown$$0000000C  c_w.l(libshutdown2.o)
    0x08000206   0x08000206   0x00000000   Code   RO         2388    .ARM.Collect$$libshutdown$$0000000E  c_w.l(libshutdown2.o)
    0x08000206   0x08000206   0x00000000   Code   RO         2391    .ARM.Collect$$libshutdown$$00000011  c_w.l(libshutdown2.o)
    0x08000206   0x08000206   0x00000002   Code   RO         2392    .ARM.Collect$$libshutdown$$00000012  c_w.l(libshutdown2.o)
    0x08000208   0x08000208   0x00000000   Code   RO         2274    .ARM.Collect$$rtentry$$00000000  c_w.l(__rtentry.o)
    0x08000208   0x08000208   0x00000000   Code   RO         2282    .ARM.Collect$$rtentry$$00000002  c_w.l(__rtentry2.o)
    0x08000208   0x08000208   0x00000006   Code   RO         2294    .ARM.Collect$$rtentry$$00000004  c_w.l(__rtentry4.o)
    0x0800020e   0x0800020e   0x00000000   Code   RO         2284    .ARM.Collect$$rtentry$$00000009  c_w.l(__rtentry2.o)
    0x0800020e   0x0800020e   0x00000004   Code   RO         2285    .ARM.Collect$$rtentry$$0000000A  c_w.l(__rtentry2.o)
    0x08000212   0x08000212   0x00000008   Code   RO         2286    .ARM.Collect$$rtentry$$0000000B  c_w.l(__rtentry2.o)
    0x0800021a   0x0800021a   0x00000008   Code   RO         2288    .ARM.Collect$$rtentry$$0000000D  c_w.l(__rtentry2.o)
    0x08000222   0x08000222   0x00000002   Code   RO         2275    .ARM.Collect$$rtexit$$00000000  c_w.l(rtexit.o)
    0x08000224   0x08000224   0x00000000   Code   RO         2297    .ARM.Collect$$rtexit$$00000002  c_w.l(rtexit2.o)
    0x08000224   0x08000224   0x00000004   Code   RO         2298    .ARM.Collect$$rtexit$$00000003  c_w.l(rtexit2.o)
    0x08000228   0x08000228   0x00000006   Code   RO         2299    .ARM.Collect$$rtexit$$00000004  c_w.l(rtexit2.o)
    0x0800022e   0x0800022e   0x00000002   PAD
    0x08000230   0x08000230   0x0000001c   Code   RO          196    .emb_text           rtx_conf_cm.o
    0x0800024c   0x0800024c   0x00000198   Code   RO         2248    .emb_text           RTX_CM4.lib(hal_cm4.o)
    0x080003e4   0x080003e4   0x00000040   Code   RO         1004  * .text               startup_stm32f407xx.o
    0x08000424   0x08000424   0x00000008   Code   RO         2263    .text               c_w.l(libspace.o)
    0x0800042c   0x0800042c   0x00000012   Code   RO         2268    .text               c_w.l(exit.o)
    0x0800043e   0x0800043e   0x00000006   Code   RO         2270    .text               c_w.l(heapauxi.o)
    0x08000444   0x08000444   0x0000000c   Code   RO         2305    .text               c_w.l(sys_exit.o)
    0x08000450   0x08000450   0x0000004a   Code   RO         2307    .text               c_w.l(sys_stackheap_outer.o)
    0x0800049a   0x0800049a   0x00000002   Code   RO         2321    .text               c_w.l(use_no_semi.o)
    0x0800049c   0x0800049c   0x00000000   Code   RO         2323    .text               c_w.l(indicate_semi.o)
    0x0800049c   0x0800049c   0x00000004   Code   RO         2258    SVC_TABLE           RTX_CM4.lib(svc_table.o)
    0x080004a0   0x080004a0   0x00000044   Code   RO           41    i.EXTI0_IRQHandler  init.o
    0x080004e4   0x080004e4   0x00000024   Code   RO           42    i.GPIO_Init         init.o
    0x08000508   0x08000508   0x00000002   Code   RO          609    i.HAL_GPIO_EXTI_Callback  stm32f4xx_hal_gpio.o
    0x0800050a   0x0800050a   0x00000002   PAD
    0x0800050c   0x0800050c   0x0000001c   Code   RO          610    i.HAL_GPIO_EXTI_IRQHandler  stm32f4xx_hal_gpio.o
    0x08000528   0x08000528   0x00000200   Code   RO          611    i.HAL_GPIO_Init     stm32f4xx_hal_gpio.o
    0x08000728   0x08000728   0x0000000c   Code   RO          615    i.HAL_GPIO_WritePin  stm32f4xx_hal_gpio.o
    0x08000734   0x08000734   0x00000064   Code   RO         1012    i.SystemInit        system_stm32f4xx.o
    0x08000798   0x08000798   0x00000026   Code   RO          172    i.THREADtask_Green_Blue_Orange_Light  tasks.o
    0x080007be   0x080007be   0x0000001a   Code   RO          173    i.THREADtask_RedLight  tasks.o
    0x080007d8   0x080007d8   0x00000046   Code   RO         2142    i._init_box         RTX_CM4.lib(rt_membox.o)
    0x0800081e   0x0800081e   0x00000002   PAD
    0x08000820   0x08000820   0x00000020   Code   RO          198    i._mutex_acquire    rtx_conf_cm.o
    0x08000840   0x08000840   0x0000001c   Code   RO          200    i._mutex_release    rtx_conf_cm.o
    0x0800085c   0x0800085c   0x00000030   Code   RO         2195    i.dbg_init          RTX_CM4.lib(hal_cm.o)
    0x0800088c   0x0800088c   0x00000020   Code   RO         2196    i.dbg_task_notify   RTX_CM4.lib(hal_cm.o)
    0x080008ac   0x080008ac   0x00000010   Code   RO         2197    i.dbg_task_switch   RTX_CM4.lib(hal_cm.o)
    0x080008bc   0x080008bc   0x0000002a   Code   RO         1048    i.isrMessageGet     RTX_CM4.lib(rt_cmsis.o)
    0x080008e6   0x080008e6   0x0000002c   Code   RO         1049    i.isrMessagePut     RTX_CM4.lib(rt_cmsis.o)
    0x08000912   0x08000912   0x00000024   Code   RO         1051    i.isrSignalSet      RTX_CM4.lib(rt_cmsis.o)
    0x08000936   0x08000936   0x00000002   PAD
    0x08000938   0x08000938   0x00000028   Code   RO         1879    i.isr_evt_set       RTX_CM4.lib(rt_event.o)
    0x08000960   0x08000960   0x00000056   Code   RO         1997    i.isr_mbx_receive   RTX_CM4.lib(rt_mailbox.o)
    0x080009b6   0x080009b6   0x0000000e   Code   RO         1998    i.isr_mbx_send      RTX_CM4.lib(rt_mailbox.o)
    0x080009c4   0x080009c4   0x0000002c   Code   RO           44    i.labInit           init.o
    0x080009f0   0x080009f0   0x00000064   Code   RO          142    i.lightsOff         lightutils.o
    0x08000a54   0x08000a54   0x0000005c   Code   RO          143    i.lightsOn          lightutils.o
    0x08000ab0   0x08000ab0   0x0000004c   Code   RO            1    i.main              main.o
    0x08000afc   0x08000afc   0x00000018   Code   RO         1052    i.osDelay           RTX_CM4.lib(rt_cmsis.o)
    0x08000b14   0x08000b14   0x00000024   Code   RO         1053    i.osKernelInitialize  RTX_CM4.lib(rt_cmsis.o)
    0x08000b38   0x08000b38   0x0000006c   Code   RO         1055    i.osKernelStart     RTX_CM4.lib(rt_cmsis.o)
    0x08000ba4   0x08000ba4   0x00000018   Code   RO         1064    i.osMessageGet      RTX_CM4.lib(rt_cmsis.o)
    0x08000bbc   0x08000bbc   0x00000018   Code   RO         1078    i.osSignalClear     RTX_CM4.lib(rt_cmsis.o)
    0x08000bd4   0x08000bd4   0x00000018   Code   RO         1079    i.osSignalSet       RTX_CM4.lib(rt_cmsis.o)
    0x08000bec   0x08000bec   0x0000002c   Code   RO         1081    i.osThreadCreate    RTX_CM4.lib(rt_cmsis.o)
    0x08000c18   0x08000c18   0x00000018   Code   RO         1082    i.osThreadExit      RTX_CM4.lib(rt_cmsis.o)
    0x08000c30   0x08000c30   0x0000000c   Code   RO         1088    i.osTimerCall       RTX_CM4.lib(rt_cmsis.o)
    0x08000c3c   0x08000c3c   0x0000002c   Code   RO         1093    i.osTimerThread     RTX_CM4.lib(rt_cmsis.o)
    0x08000c68   0x08000c68   0x00000022   Code   RO          201    i.os_error          rtx_conf_cm.o
    0x08000c8a   0x08000c8a   0x00000004   Code   RO          202    i.os_idle_demon     rtx_conf_cm.o
    0x08000c8e   0x08000c8e   0x00000002   PAD
    0x08000c90   0x08000c90   0x00000028   Code   RO         1789    i.os_tick_init      RTX_CM4.lib(rt_system.o)
    0x08000cb8   0x08000cb8   0x00000002   Code   RO         1790    i.os_tick_irqack    RTX_CM4.lib(rt_system.o)
    0x08000cba   0x08000cba   0x0000001a   Code   RO         2143    i.rt_alloc_box      RTX_CM4.lib(rt_membox.o)
    0x08000cd4   0x08000cd4   0x0000003e   Code   RO         2171    i.rt_alloc_mem      RTX_CM4.lib(rt_memory.o)
    0x08000d12   0x08000d12   0x00000002   PAD
    0x08000d14   0x08000d14   0x00000038   Code   RO         1670    i.rt_block          RTX_CM4.lib(rt_task.o)
    0x08000d4c   0x08000d4c   0x00000048   Code   RO         2120    i.rt_chk_robin      RTX_CM4.lib(rt_robin.o)
    0x08000d94   0x08000d94   0x00000070   Code   RO         1921    i.rt_dec_dly        RTX_CM4.lib(rt_list.o)
    0x08000e04   0x08000e04   0x00000044   Code   RO         1671    i.rt_dispatch       RTX_CM4.lib(rt_task.o)
    0x08000e48   0x08000e48   0x00000006   Code   RO         2087    i.rt_dly_wait       RTX_CM4.lib(rt_time.o)
    0x08000e4e   0x08000e4e   0x00000002   PAD
    0x08000e50   0x08000e50   0x0000001c   Code   RO         1880    i.rt_evt_clr        RTX_CM4.lib(rt_event.o)
    0x08000e6c   0x08000e6c   0x00000050   Code   RO         1882    i.rt_evt_psh        RTX_CM4.lib(rt_event.o)
    0x08000ebc   0x08000ebc   0x0000005c   Code   RO         1883    i.rt_evt_set        RTX_CM4.lib(rt_event.o)
    0x08000f18   0x08000f18   0x0000002c   Code   RO         2144    i.rt_free_box       RTX_CM4.lib(rt_membox.o)
    0x08000f44   0x08000f44   0x00000028   Code   RO         2172    i.rt_free_mem       RTX_CM4.lib(rt_memory.o)
    0x08000f6c   0x08000f6c   0x00000028   Code   RO         1922    i.rt_get_first      RTX_CM4.lib(rt_list.o)
    0x08000f94   0x08000f94   0x00000008   Code   RO         1098    i.rt_id2obj         RTX_CM4.lib(rt_cmsis.o)
    0x08000f9c   0x08000f9c   0x00000048   Code   RO         1672    i.rt_init_context   RTX_CM4.lib(rt_task.o)
    0x08000fe4   0x08000fe4   0x0000001a   Code   RO         2173    i.rt_init_mem       RTX_CM4.lib(rt_memory.o)
    0x08000ffe   0x08000ffe   0x00000002   PAD
    0x08001000   0x08001000   0x00000018   Code   RO         2121    i.rt_init_robin     RTX_CM4.lib(rt_robin.o)
    0x08001018   0x08001018   0x00000080   Code   RO         2198    i.rt_init_stack     RTX_CM4.lib(hal_cm.o)
    0x08001098   0x08001098   0x00000008   Code   RO         1999    i.rt_mbx_check      RTX_CM4.lib(rt_mailbox.o)
    0x080010a0   0x080010a0   0x0000001a   Code   RO         2000    i.rt_mbx_init       RTX_CM4.lib(rt_mailbox.o)
    0x080010ba   0x080010ba   0x00000002   PAD
    0x080010bc   0x080010bc   0x000000f0   Code   RO         2001    i.rt_mbx_psh        RTX_CM4.lib(rt_mailbox.o)
    0x080011ac   0x080011ac   0x000000b4   Code   RO         2003    i.rt_mbx_wait       RTX_CM4.lib(rt_mailbox.o)
    0x08001260   0x08001260   0x00000044   Code   RO         1099    i.rt_ms2tick        RTX_CM4.lib(rt_cmsis.o)
    0x080012a4   0x080012a4   0x000000d8   Code   RO         1756    i.rt_mut_release    RTX_CM4.lib(rt_mutex.o)
    0x0800137c   0x0800137c   0x00000078   Code   RO         1757    i.rt_mut_wait       RTX_CM4.lib(rt_mutex.o)
    0x080013f4   0x080013f4   0x0000007c   Code   RO         1793    i.rt_pop_req        RTX_CM4.lib(rt_system.o)
    0x08001470   0x08001470   0x00000020   Code   RO         1794    i.rt_psh_req        RTX_CM4.lib(rt_system.o)
    0x08001490   0x08001490   0x0000005c   Code   RO         1924    i.rt_psq_enq        RTX_CM4.lib(rt_list.o)
    0x080014ec   0x080014ec   0x00000048   Code   RO         1925    i.rt_put_dly        RTX_CM4.lib(rt_list.o)
    0x08001534   0x08001534   0x00000036   Code   RO         1926    i.rt_put_prio       RTX_CM4.lib(rt_list.o)
    0x0800156a   0x0800156a   0x00000002   PAD
    0x0800156c   0x0800156c   0x00000014   Code   RO         1927    i.rt_put_rdy_first  RTX_CM4.lib(rt_list.o)
    0x08001580   0x08001580   0x00000034   Code   RO         1928    i.rt_resort_prio    RTX_CM4.lib(rt_list.o)
    0x080015b4   0x080015b4   0x00000010   Code   RO         2199    i.rt_ret_regs       RTX_CM4.lib(hal_cm.o)
    0x080015c4   0x080015c4   0x0000000c   Code   RO         2200    i.rt_ret_val        RTX_CM4.lib(hal_cm.o)
    0x080015d0   0x080015d0   0x00000010   Code   RO         2201    i.rt_ret_val2       RTX_CM4.lib(hal_cm.o)
    0x080015e0   0x080015e0   0x00000028   Code   RO         1929    i.rt_rmv_dly        RTX_CM4.lib(rt_list.o)
    0x08001608   0x08001608   0x00000030   Code   RO         1930    i.rt_rmv_list       RTX_CM4.lib(rt_list.o)
    0x08001638   0x08001638   0x00000034   Code   RO         2048    i.rt_sem_psh        RTX_CM4.lib(rt_semaphore.o)
    0x0800166c   0x0800166c   0x00000024   Code   RO         1796    i.rt_stk_check      RTX_CM4.lib(rt_system.o)
    0x08001690   0x08001690   0x00000028   Code   RO         1673    i.rt_switch_req     RTX_CM4.lib(rt_task.o)
    0x080016b8   0x080016b8   0x000000cc   Code   RO         1674    i.rt_sys_init       RTX_CM4.lib(rt_task.o)
    0x08001784   0x08001784   0x00000078   Code   RO         1675    i.rt_sys_start      RTX_CM4.lib(rt_task.o)
    0x080017fc   0x080017fc   0x00000040   Code   RO         1798    i.rt_systick        RTX_CM4.lib(rt_system.o)
    0x0800183c   0x0800183c   0x00000012   Code   RO         1100    i.rt_tid2ptcb       RTX_CM4.lib(rt_cmsis.o)
    0x0800184e   0x0800184e   0x00000002   PAD
    0x08001850   0x08001850   0x00000034   Code   RO         1101    i.rt_timer_insert   RTX_CM4.lib(rt_cmsis.o)
    0x08001884   0x08001884   0x00000088   Code   RO         1676    i.rt_tsk_create     RTX_CM4.lib(rt_task.o)
    0x0800190c   0x0800190c   0x0000017c   Code   RO         1677    i.rt_tsk_delete     RTX_CM4.lib(rt_task.o)
    0x08001a88   0x08001a88   0x0000007c   Code   RO         1679    i.rt_tsk_prio       RTX_CM4.lib(rt_task.o)
    0x08001b04   0x08001b04   0x00000010   Code   RO         1680    i.rt_tsk_self       RTX_CM4.lib(rt_task.o)
    0x08001b14   0x08001b14   0x00000012   Code   RO         1103    i.svcDelay          RTX_CM4.lib(rt_cmsis.o)
    0x08001b26   0x08001b26   0x00000002   PAD
    0x08001b28   0x08001b28   0x00000070   Code   RO         1104    i.svcKernelInitialize  RTX_CM4.lib(rt_cmsis.o)
    0x08001b98   0x08001b98   0x00000048   Code   RO         1106    i.svcKernelStart    RTX_CM4.lib(rt_cmsis.o)
    0x08001be0   0x08001be0   0x00000024   Code   RO         1109    i.svcMessageCreate  RTX_CM4.lib(rt_cmsis.o)
    0x08001c04   0x08001c04   0x0000003a   Code   RO         1110    i.svcMessageGet     RTX_CM4.lib(rt_cmsis.o)
    0x08001c3e   0x08001c3e   0x00000024   Code   RO         1121    i.svcSignalClear    RTX_CM4.lib(rt_cmsis.o)
    0x08001c62   0x08001c62   0x00000024   Code   RO         1122    i.svcSignalSet      RTX_CM4.lib(rt_cmsis.o)
    0x08001c86   0x08001c86   0x00000002   PAD
    0x08001c88   0x08001c88   0x0000006c   Code   RO         1124    i.svcThreadCreate   RTX_CM4.lib(rt_cmsis.o)
    0x08001cf4   0x08001cf4   0x0000001c   Code   RO         1125    i.svcThreadGetId    RTX_CM4.lib(rt_cmsis.o)
    0x08001d10   0x08001d10   0x00000038   Code   RO         1128    i.svcThreadTerminate  RTX_CM4.lib(rt_cmsis.o)
    0x08001d48   0x08001d48   0x00000018   Code   RO         1130    i.svcTimerCall      RTX_CM4.lib(rt_cmsis.o)
    0x08001d60   0x08001d60   0x0000005c   Code   RO         1139    i.sysTimerTick      RTX_CM4.lib(rt_cmsis.o)
    0x08001dbc   0x08001dbc   0x0000000a   Code   RO         2399    x$fpl$fpinit        fz_wm.l(fpinit.o)
    0x08001dc6   0x08001dc6   0x00000002   PAD
    0x08001dc8   0x08001dc8   0x00000020   Data   RO            2    .constdata          main.o
    0x08001de8   0x08001de8   0x00000068   Data   RO          204    .constdata          rtx_conf_cm.o
    0x08001e50   0x08001e50   0x00000020   Data   RO         2433    Region$$Table       anon$$obj.o


    Execution Region ER_RW (Exec base: 0x20000000, Load base: 0x08001e70, Size: 0x00000048, Max: 0xffffffff, ABSOLUTE)

    Exec Addr    Load Addr    Size         Type   Attr      Idx    E Section Name        Object

    0x20000000   0x08001e70   0x0000000c   Data   RW          174    .data               tasks.o
    0x2000000c   0x08001e7c   0x00000014   Data   RW          205    .data               rtx_conf_cm.o
    0x20000020   0x08001e90   0x00000008   Data   RW         1142    .data               RTX_CM4.lib(rt_cmsis.o)
    0x20000028   0x08001e98   0x00000008   Data   RW         1682    .data               RTX_CM4.lib(rt_task.o)
    0x20000030   0x08001ea0   0x00000008   Data   RW         1801    .data               RTX_CM4.lib(rt_system.o)
    0x20000038   0x08001ea8   0x00000004   Data   RW         2091    .data               RTX_CM4.lib(rt_time.o)
    0x2000003c   0x08001eac   0x00000008   Data   RW         2122    .data               RTX_CM4.lib(rt_robin.o)
    0x20000044   0x08001eb4   0x00000001   Data   RW         2202    .data               RTX_CM4.lib(hal_cm.o)


    Execution Region ER_ZI (Exec base: 0x20000048, Load base: 0x08001eb8, Size: 0x00001290, Max: 0xffffffff, ABSOLUTE)

    Exec Addr    Load Addr    Size         Type   Attr      Idx    E Section Name        Object

    0x20000048        -       0x00000bc8   Zero   RW          203    .bss                rtx_conf_cm.o
    0x20000c10        -       0x00000034   Zero   RW         1681    .bss                RTX_CM4.lib(rt_task.o)
    0x20000c44        -       0x00000030   Zero   RW         1931    .bss                RTX_CM4.lib(rt_list.o)
    0x20000c74        -       0x00000060   Zero   RW         2264    .bss                c_w.l(libspace.o)
    0x20000cd4   0x08001eb8   0x00000004   PAD
    0x20000cd8        -       0x00000200   Zero   RW         1002    HEAP                startup_stm32f407xx.o
    0x20000ed8        -       0x00000400   Zero   RW         1001    STACK               startup_stm32f407xx.o


==============================================================================

Image component sizes


      Code (inc. data)   RO Data    RW Data    ZI Data      Debug   Object Name

       148         18          0          0          0     567951   init.o
       192          8          0          0          0       1503   lightutils.o
        76         18         32          0          0      10022   main.o
       126         26        104         20       3016       9571   rtx_conf_cm.o
        64         26        392          0       1536        912   startup_stm32f407xx.o
       554         50          0          0          0       3824   stm32f4xx_hal_gpio.o
       100         18          0          0          0        577   system_stm32f4xx.o
        64          0          0         12          0       1625   tasks.o

    ----------------------------------------------------------------------
      1328        164        560         32       4552     595985   Object Totals
         0          0         32          0          0          0   (incl. Generated)
         4          0          0          0          0          0   (incl. Padding)

    ----------------------------------------------------------------------

      Code (inc. data)   RO Data    RW Data    ZI Data      Debug   Library Member Name

       268         24          0          1          0       4440   hal_cm.o
       408         34          0          0          0        812   hal_cm4.o
      1308        154          0          8          0      39512   rt_cmsis.o
       240         20          0          0          0       2593   rt_event.o
       530         34          0          0         48       8589   rt_list.o
       554         10          0          0          0       4177   rt_mailbox.o
       140          0          0          0          0       2033   rt_membox.o
       128          0          0          0          0       2411   rt_memory.o
       336         14          0          0          0       1719   rt_mutex.o
        96         22          0          8          0       1230   rt_robin.o
        52          4          0          0          0        613   rt_semaphore.o
       298         52          0          8          0       6427   rt_system.o
      1216        174          0          8         52      10017   rt_task.o
         6          0          0          4          0        684   rt_time.o
         4          4          0          0          0        196   svc_table.o
         8          0          0          0          0         68   __main.o
         0          0          0          0          0          0   __rtentry.o
        20          0          0          0          0          0   __rtentry2.o
         6          0          0          0          0          0   __rtentry4.o
        52          8          0          0          0          0   __scatter.o
        26          0          0          0          0          0   __scatter_copy.o
        28          0          0          0          0          0   __scatter_zi.o
        18          0          0          0          0         80   exit.o
         6          0          0          0          0        152   heapauxi.o
         0          0          0          0          0          0   indicate_semi.o
         2          0          0          0          0          0   libinit.o
         6          0          0          0          0          0   libinit2.o
         2          0          0          0          0          0   libshutdown.o
         2          0          0          0          0          0   libshutdown2.o
         8          4          0          0         96         68   libspace.o
         2          0          0          0          0          0   rtexit.o
        10          0          0          0          0          0   rtexit2.o
        12          4          0          0          0         68   sys_exit.o
        74          0          0          0          0         80   sys_stackheap_outer.o
         2          0          0          0          0         68   use_no_semi.o
        10          0          0          0          0        116   fpinit.o

    ----------------------------------------------------------------------
      5904        562          0         40        200      86153   Library Totals
        26          0          0          3          4          0   (incl. Padding)

    ----------------------------------------------------------------------

      Code (inc. data)   RO Data    RW Data    ZI Data      Debug   Library Name

      5584        546          0         37        100      85453   RTX_CM4.lib
       284         16          0          0         96        584   c_w.l
        10          0          0          0          0        116   fz_wm.l

    ----------------------------------------------------------------------
      5904        562          0         40        200      86153   Library Totals

    ----------------------------------------------------------------------

==============================================================================


      Code (inc. data)   RO Data    RW Data    ZI Data      Debug   

      7232        726        560         72       4752     672682   Grand Totals
      7232        726        560         72       4752     672682   ELF Image Totals
      7232        726        560         72          0          0   ROM Totals

==============================================================================

    Total RO  Size (Code + RO Data)                 7792 (   7.61kB)
    Total RW  Size (RW Data + ZI Data)              4824 (   4.71kB)
    Total ROM Size (Code + RO Data + RW Data)       7864 (   7.68kB)

==============================================================================

